:100000000C9462000C948A000C948A000C948A0070
:100010000C948A000C948A000C948A000C948A0038
:100020000C948A000C948A000C948A000C948A0028
:100030000C948A000C948A000C948A000C948A0018
:100040000C94900E0C948A000C942D0B0C947B0B4A
:100050000C948A000C948A000C948A000C948A00F8
:100060000C948A000C948A000000000024002700F1
:100070002A0000000000250028002B0000000000DE
:1000800023002600290004040404040404040202DA
:100090000202020203030303030301020408102007
:1000A0004080010204081020010204081020000012
:1000B0000007000201000003040600000000000029
:1000C0000000E70C11241FBECFEFD8E0DEBFCDBF8C
:1000D00011E0A0E0B1E0EAE0F0E202C005900D928C
:1000E000A038B107D9F712E0A0E8B1E001C01D9235
:1000F000A23BB107E1F710E0C4ECD0E004C02297C6
:10010000FE010E94FF0FC23CD107C9F70E943D0DBE
:100110000C9403100C940000EF92FF920F93DF9366
:10012000CF93CDB7DEB760970FB6F894DEBF0FBEA2
:10013000CDBFA82F002309F461C07E010894E11C03
:10014000F11C88E0F70111928A95E9F729833A8337
:100150004B835C836D837E83AF83988780E2801BB3
:10016000E82FFF27E7FDF0954D815E816F8178854F
:10017000181684F01D861E861F86188A88279927E0
:100180008E1B9F0B04C076956795579547958A956A
:10019000D2F728C0202F332727FD3095DB01CA0175
:1001A000022E04C0B695A795979587950A94D2F725
:1001B0008D879E87AF87B88B04C0440F551F661F7D
:1001C000771FEA95D2F789819A81AB81BC8104C0FF
:1001D000B695A795979587952A95D2F7482B592BD1
:1001E0006A2B7B2B49875A876B877C8729853A85C1
:1001F0004B855C856D857E85AF8598898A2F609655
:100200000FB6F894DEBF0FBECDBFCF91DF910F9137
:10021000FF90EF900895EF92FF920F93DF93CF93AB
:10022000CDB7DEB760970FB6F894DEBF0FBECDBF77
:10023000A82F002309F461C07E010894E11CF11C81
:1002400088E0F70111928A95E9F729833A834B8375
:100250005C836D837E83AF83988780E2801BE82F69
:10026000FF27E7FDF09549815A816B817C81181643
:1002700084F019861A861B861C86882799278E1B70
:100280009F0B04C0440F551F661F771F8A95D2F736
:1002900028C0202F332727FD3095DB01CA01022E0D
:1002A00004C0880F991FAA1FBB1F0A94D2F7898721
:1002B0009A87AB87BC8704C0769567955795479515
:1002C000EA95D2F78D819E81AF81B88504C0880FF1
:1002D000991FAA1FBB1F2A95D2F7482B592B6A2BAF
:1002E0007B2B4D875E876F87788B29853A854B8579
:1002F0005C856D857E85AF8598898A2F60960FB65F
:10030000F894DEBF0FBECDBFCF91DF910F91FF906C
:10031000EF9008951F93CF93DF93182FEB01603870
:100320007105E8F1CB018058904080589F4730F02C
:1003300010E0812FDF91CF911F91089585E360E058
:100340000E94890F812F90E0805C9F4F8EBD0DB47D
:1003500007FEFDCF8EB5CE018F77907080589F4FEE
:100360008EBD0DB407FEFDCF8EB5C078DF77CC0F04
:10037000CD2FCC1FDD0BD195CEBD0DB407FEFDCF2B
:100380008EB51EBC0DB407FEFDCF1EB585E361E042
:100390000E94890F812FDF91CF911F91089585E3EE
:1003A00060E00E94890F812F90E0805C9F4F8EBD9E
:1003B0000DB407FEFDCF8EB5CF77D070CEBD0DB496
:1003C00007FEFDCF8EB51EBC0DB407FEFDCF1EB5DA
:1003D00085E361E00E94890FDDCF0F931F93CF93D8
:1003E000DF93182FEB01042F60387105E0F1CB018A
:1003F0008058904080589F4728F0DF91CF911F91FF
:100400000F91089585E360E00E94890F812F90E0AD
:1004100080549F4F8EBD0DB407FEFDCF8EB5CE012B
:100420008F77907080589F4F8EBD0DB407FEFDCF23
:100430008EB5C078DF77CC0FCD2FCC1FDD0BD195DB
:10044000CEBD0DB407FEFDCF8EB50EBD0DB407FEBB
:10045000FDCF8EB585E361E00E94890FDF91CF91DA
:100460001F910F91089585E360E00E94890F812F0D
:1004700090E080549F4F8EBD0DB407FEFDCF8EB52A
:10048000CF77D070CEBD0DB407FEFDCF8EB50EBDBB
:100490000DB407FEFDCF8EB585E361E00E94890FA4
:1004A000DDCF86E360E070E041E00E94ED018DE287
:1004B00067E070E040E80E94ED0188EC90E00E9467
:1004C000D80E86E360E070E040E00E94ED01089500
:1004D0003F924F925F926F927F928F929F92AF92D4
:1004E000BF92CF92DF92EF92FF920F931F93CF9321
:1004F000DF932C017B018DE060E070E040E40E941E
:10050000ED018DE061E070E041E00E94ED018FE0DF
:1005100061E070E00E948A0185FD0FC084FDC9C0C2
:100520008FE062E070E00E948A0184FFF0CF87E8EC
:1005300092E06EE371E00E947D0E8DE060E070E07D
:1005400040E40E94ED0180E160E070E00E948A01D9
:100550004FE7342E382289F0C32DD0E000E010E0C0
:1005600081E1B8010E948A01F701E00FF11F808349
:100570000F5F1F4F0C171D079CF3662477248824F8
:10058000AA24DD24EE24FF2400E0C4E0D0E085E1CD
:10059000BE010E948A01182F9301482D5A2D6D2DFE
:1005A0007E2D8F2D902F08E00E940B01C22EA32FCD
:1005B000B42F052FF62EE72ED82EA92E30E040E0DE
:1005C00050E060E070E080E090E0C10EF1E0C11624
:1005D00008F0F0E0E1E0A31708F0E0E09F2E9A0EAB
:1005E000F1E09A1608F0F0E0EF2BF1E0B41708F014
:1005F000F0E0BE2EBB0EE1E0BB1608F0E0E0FE2B03
:10060000E1E0051708F0E0E01F2F100FF1E01017F0
:1006100008F0F0E0EF2BF1E0F61608F0F0E0BE2F66
:10062000BF0DE1E0BF1508F0E0E0FE2BE1E0E716CA
:1006300008F0E0E0AF2FAE0DF1E0AE1508F0F0E00D
:10064000EF2BF1E0D81608F0F0E04E2F4D0D31E021
:100650004D1508F030E08F2F832B8A0D6C2C792CF0
:100660008B2CA12EDB2EEA2EF42E082F21979FEF44
:10067000CF3FD90709F08BCFF201C1829282B382BA
:100680001483B583A683478380873082C201DF91BC
:10069000CF911F910F91FF90EF90DF90CF90BF907F
:1006A000AF909F908F907F906F905F904F903F9012
:1006B000089587E892E06DE171E00E947D0E3DCFE4
:1006C000EF92FF920F931F93CF93DF937C018B01E7
:1006D0008DE060E070E040E40E94ED01101611062C
:1006E00074F4C0E0D0E0F701EC0FFD1F89E0BE011B
:1006F00040810E94ED012196C017D107A4F3402F3D
:100700004E5F88E060E070E00E94ED018DE060E007
:1007100070E042E00E94ED018FE060E070E00E9436
:100720008A0187FD07C08FE063E070E00E948A01C4
:1007300084FFF2CF8FE060E070E04EEF0E94ED01A9
:100740008DE060E070E040E40E94ED01DF91CF9128
:100750001F910F91FF90EF9008954F925F926F92CB
:100760007F928F929F92AF92BF92CF92DF92EF9241
:10077000FF920F931F93DF93CF93CDB7DEB7CF5781
:10078000D0400FB6F894DEBF0FBECDBF2C01362F80
:10079000572F81E0898388E88A831B829AEC9C83A7
:1007A0008EED8D832E831F83988789870A871B8709
:1007B000442309F499C0642F70E06115710509F4B0
:1007C0009AC0832F952F9C01D901FE013C96AE0162
:1007D0004F5F5F4F655F7F4F9A01260F371F6B504A
:1007E00070408D918193E217F307D9F7655F7F4FD2
:1007F000CA010E946003772488249924AA24BB2478
:10080000CC24DD2400E054E0E52EF12C87E1B70193
:100810000E948A01182F272D382D492D5A2D6B2D16
:100820007C2D8D2D902F08E00E940B01092FB22FF7
:10083000B10FE1E0B21708F0E0E0AE2FA30F21E026
:10084000A31708F020E0122F140F21E0141708F06E
:1008500020E0622E650E21E0651608F020E0422FB0
:10086000460F21E0461708F020E0322F370F21E035
:10087000371708F020E0280F91E0281708F090E0E3
:10088000900F7B2E8A2E912EA62CB42EC32ED22E04
:10089000092F0894E108F1088FEFE8168FEFF806AA
:1008A00009F0B4CFF201B183A2831383648245833C
:1008B000368327839087C201C158DF4F0FB6F89463
:1008C000DEBF0FBECDBFCF91DF911F910F91FF9083
:1008D000EF90DF90CF90BF90AF909F908F907F90E0
:1008E0006F905F904F900895CE0101966BE070E09D
:1008F0000E94600380CFAE014F5F5F4F77CFEF92D2
:10090000FF920F931F93082F7B01AB01507083E080
:10091000602F70E00E94ED0110E00F5F1F4F83E039
:10092000B8014F2D0E94ED011F910F91FF90EF90A4
:1009300008959F92AF92BF92CF92DF92EF92FF9273
:100940000F931F93DF93CF93CDB7DEB728970FB6E2
:10095000F894DEBF0FBECDBFA22F2983F32F3A83B9
:10096000342F4B835C836D837E838F839887A32E84
:10097000DF2EEA2E952EF62EC72EB82E83E26CE0DF
:1009800070E047E00E94ED0183E26DE070E049EA2B
:100990000E94ED0183E26EE070E042E00E94ED0112
:1009A00083E26FE070E045E20E94ED018EE266E0D6
:1009B00078E147E00E94ED018EE267E078E146E1F0
:1009C0000E94ED0188E26CE070E040EE0E94ED01D3
:1009D00088E26DE070E04FE30E94ED0188E26EE096
:1009E00070E04EE10E94ED0188E26FE070E040E0CF
:1009F0000E94ED018AE26BE070E040EC0E94ED01A4
:100A00008BE26BE070E04EEB0E94ED014D2D4A0D44
:100A100088E062E070E00E94ED0188E061E070E053
:100A20004E2D0E94ED01EE2009F08EC084E062E0C0
:100A300070E044E40E94ED0181E0D81609F48EC014
:100A400000E010E08EE1B80145E80E94ED010F5F83
:100A50001F4F04301105B1F783E264E070E04BE909
:100A60000E94ED0183E265E070E048E80E94ED013C
:100A700087E264E070E04DE80E94ED01992009F4FE
:100A8000A0C080E4E81609F4C4C080E2E81609F4C6
:100A900053C1EE2009F4A6C092E34F2D4295440FB6
:100AA000440F407C8D2D880F880F480F490F8FE130
:100AB00062E070E00E94ED01CC0CCC0CCC0C8CE11F
:100AC000F822F694F694FC0C8FE163E070E04F2D71
:100AD0000E94ED0180E4A81609F41CC1A7FC27C1FF
:100AE00088E0B81609F4F5C080E1B81609F4D8C05A
:100AF00080E2B81609F4BBC080E4B81609F49EC0C1
:100B000084E0A81609F48DC088E0A81609F463C033
:100B100084E1A81609F45FC087E267E270E040E074
:100B20000E94ED0128960FB6F894DEBF0FBECDBF30
:100B3000CF91DF911F910F91FF90EF90DF90CF90B9
:100B4000BF90AF909F90089584E062E070E044E031
:100B50000E94ED0181E0D81609F072CF8EE160E0CD
:100B600070E048E40E94ED018EE161E070E048E24F
:100B70000E94ED018EE162E070E048E00E94ED012C
:100B80008EE163E070E04EE00E94ED0183E264E0FC
:100B900070E040E70E94ED0183E265E070E048E824
:100BA0000E94ED0187E264E070E047E80E94ED01F9
:100BB00087E265E070E040E00E94ED01992009F0D5
:100BC00060CF80E4E816E9F080E2E816D1F0EE208C
:100BD00081F090E062CF87E266E270E048E20E9436
:100BE000ED019ACF87E262E070E046E10E94ED01FC
:100BF00053CF87E262E070E04AE00E94ED0190E0AE
:100C00004CCF87E262E070E041E00E94ED0190E0AD
:100C100044CF87E262E070E042E00E94ED0192E39F
:100C20003CCF87E266E270E040E10E94ED0187E29E
:100C300067E270E040E00E94ED016ECF87E26BE07A
:100C400070E047E30E94ED0181E0D81609F48FC0FF
:100C500082E0D81609F054CF87E268E070E046E9F8
:100C60000E94ED0187E269E070E042E04AC087E25D
:100C70006BE070E045E30E94ED0181E0D81609F4D5
:100C800063C082E0D81609F03BCF87E268E070E0ED
:100C90004EE50E94ED0187E269E070E041E031C07D
:100CA00087E26BE070E043E30E94ED0181E0D8163B
:100CB00009F473C082E0D81609F022CF87E268E019
:100CC00070E04EEB0E94ED0187E269E070E040E0E9
:100CD00018C087E26BE070E041E30E94ED0181E023
:100CE000D81609F44FC082E0D81609F009CF87E280
:100CF00068E070E04BE60E94ED0187E269E070E099
:100D000040E00E94ED0187E26AE070E04BE30E9460
:100D1000ED01F6CE87E266E070E044E60E94ED0168
:100D200087E267E070E040E00E94ED01D9CE87E203
:100D300066E070E040E2F2CF87E262E070E046E019
:100D40000E94ED0192E3A9CE87E268E070E04AE9F3
:100D50000E94ED0187E269E070E040E00E94ED0151
:100D600087E26AE070E04AE10E94ED01C9CE87E2C5
:100D700068E070E04DE10E94ED0187E269E070E01B
:100D800041E0ECCF87E268E070E04DE20E94ED01C7
:100D900087E269E070E040E0E1CF87E268E070E080
:100DA00042E50E94ED0187E269E070E040E0D6CFC5
:100DB000CF92DF92EF92FF920F931F9380E063E058
:100DC00070E00E948A01E82E80E062E070E00E94FC
:100DD0008A01F82E80E061E070E00E948A01D82E3E
:100DE00080E060E070E00E948A01C82E07E812E00F
:100DF000C80160E671E00E947A0E7E2D60E06F0D02
:100E0000711DC80140E150E00E94390EC80169E639
:100E100071E00E947A0EC8016D2D40E150E00E9401
:100E20004A0EC8016CE571E00E947A0EC8016C2D73
:100E300040E150E00E945C0E1F910F91FF90EF90F7
:100E4000DF90CF9008952F923F924F925F926F92D2
:100E50007F928F929F92AF92BF92CF92DF92EF924A
:100E6000FF920F931F93DF93CF93CDB7DEB7ED972C
:100E70000FB6F894DEBF0FBECDBF7E010894E11C13
:100E8000F11CC70160E871E00E946802CE010A9679
:100E900060E871E040E02BE030E00AE010E00E9402
:100EA000AD032A812AAB3B813BAB4C814CAB8D819E
:100EB0008DAB9E819EABAF81AFABB885B8AFE985F6
:100EC000E9AFFB85FAA72C852BA73D853CA74E856E
:100ED0004DA78F858EA798899FA7A989A8ABBA89A6
:100EE000B9ABC70160E871E00E946802EA81EAA339
:100EF000FB81FBA32C812CA33D813DA34E814EA3FE
:100F00008F818FA3988598A7A985A9A782E9E82E44
:100F100081E0F82E20E030E040E050E060E070E05A
:100F200080E090E008E00E940B01F92FD701BC900F
:100F3000B20EE1E0B21608F0E0E04E2E430E21E0E2
:100F4000431608F020E0322E340E21E0341608F06B
:100F500020E0222E250E21E0251608F020E0260FA5
:100F60002B8B21E0BB89B61708F020E0270F2C8BD4
:100F700021E0EC89E71708F020E0280F2D8B91E0A5
:100F8000281708F090E09F0F9E8B2B2D342D432DBA
:100F9000522D6B897C898D890894E108F108FAE863
:100FA000EF16F1E0FF0609F0BDCF20E130E0E20EE0
:100FB000F31E20E030E040E050E060E070E080E0D0
:100FC00090E008E00E940B01A32E942EA52FB62FCF
:100FD000172F082FD92EF701C080C20E31E0C2169C
:100FE00008F030E0532E5A0C41E05A1408F040E06B
:100FF000642E690C51E0691408F050E0752E7A0EE9
:1010000061E07A1608F060E0862E8B0E71E08B1698
:1010100008F070E0972E910E81E0911608F080E0C4
:10102000A82EA00E91E0A01608F090E09D0D9F8BD9
:101030002C2D352DA301B4018A2D0894E108F10867
:10104000F2E9EF16F1E0FF0609F0BBCF20E130E056
:10105000E20EF31E20E030E040E050E060E070E09F
:1010600080E090E008E00E940B01F92FD7011C916D
:10107000120FE1E0121708F0E0E0DE2ED30E21E0BF
:10108000D31608F020E0240F288F21E0B88DB41784
:1010900008F020E0250F298F21E0E98DE51708F001
:1010A00020E0260F2A8F21E03A8D361708F020E045
:1010B000270F2B8F21E04B8D471708F020E0280FDA
:1010C0002C8F91E0281708F090E09F0F9D8F212F23
:1010D0003D2D488D598D6A8D7B8D8C8D0894E1084E
:1010E000F108AAE9EA16A1E0FA0609F0BBCFBAA115
:1010F000EAA9BE0FBAAF21E0FAA1BF1708F020E0BD
:101100008BA13BA9830F91E04BA1841708F090E0DD
:10111000F22EF80E21E0F81608F020E0922B8CA1B8
:10112000ACA98A0F21E0BCA18B1708F020E0E92EC2
:10113000E80E91E0E81608F090E0292B8DA1EDA9CA
:101140008E0F91E0FDA18F1708F090E0280F2E8FF1
:1011500021E03E8D381708F020E0922B8EA14EA999
:10116000840F21E0AEA18A1708F020E0980F9F8F2E
:1011700091E0BF8DB81708F090E0292B8FA1EFA95F
:101180008E0F31E0FFA18F1708F030E0280F28A361
:1011900091E0281708F090E0392B88A528AD820F40
:1011A00091E048A5841708F090E0380F39A321E0BA
:1011B000381708F020E0922B89A5A9AD8A0F890F76
:1011C0008BAF2AA53BA54CA55DA56EA57FA588A9DB
:1011D00099A901E00E940B01BAADB21BE1E0FAADA2
:1011E000FB1708F0E0E02F2D231B322F21E0F31630
:1011F00008F020E0F32FFE1BE1E03F1708F0E0E0ED
:101200002E2B3E2D341B432F31E0E41608F030E046
:10121000E42FE21B21E04E1708F020E0322B4E8D28
:10122000451B542F21E0AE8DA41708F020E0A52F18
:10123000A31B31E05A1708F030E0232B3F8D361BFB
:10124000632F31E04F8D461708F030E0562F521BC8
:1012500021E0651708F020E0322B28A1271B722F10
:1012600041E028A1271708F040E0672F631B21E029
:10127000761708F020E0422B39A1381B832F21E09C
:1012800039A1381708F020E0782F741B31E0871758
:1012900008F030E0232B4BAD491B942F921B8B2F72
:1012A0008B198CAF31E0B81708F030E08F2F84191C
:1012B00021E0F81708F020E0F82EF31A31E08F153E
:1012C00008F030E0232B8E2F831931E0E81708F067
:1012D00030E0E82EE21A21E08E1508F020E0322BF3
:1012E0008A2F821921E0A81708F020E0B82EB31A3F
:1012F00031E08B1508F030E0232B852FAB898A1B5A
:1013000031E0581708F030E0482E421A21E08415E9
:1013100008F020E0322B862FBC898B1B41E0681738
:1013200008F040E0382E331A21E0831508F020E061
:10133000422B872FED898E1B21E0781708F020E0E3
:10134000282E241A31E0821508F030E0232BFE8984
:101350009F1B921B9DAF2C2D352DA301B4018A2D0F
:101360009F8901E00E940B01ACAD2A0FF1E02A1722
:1013700008F0F0E03F0DE1E03F1508F0E0E0AF2FAE
:10138000A30FF1E0A31708F0F0E0EF2B4E0D31E0D2
:101390004E1508F030E0FE2FF40FE1E0F41708F0EE
:1013A000E0E03E2B5B0D41E05B1508F040E0E32FF1
:1013B000E50F31E0E51708F030E0432B640D31E034
:1013C000641508F030E0B42FB60F41E0B61708F00E
:1013D00040E0342B730D41E0731508F040E0032F1B
:1013E000070F31E0071708F030E0432B820D31E0A2
:1013F000821508F030E0F42EF80E41E0F81608F0FF
:1014000040E0342B4DAD940F930F822F811B182F8A
:1014100031E0281708F030E08A2F8D1941E0A81735
:1014200008F040E0A82FA31B3A2F51E08A1708F0DC
:1014300050E0452B8F2F288D821B51E0F81708F0C4
:1014400050E0A82FA41B4A2F61E08A1708F060E043
:10145000562B8E2FF98D8F1B61E0E81708F060E0A6
:10146000282F251B522F71E0821708F070E0672BA0
:101470008B2FAA8D8A1B71E0B81708F070E0B82F87
:10148000B61B6B2FE1E08B1708F0E0E07E2BE02F1E
:10149000FB8DEF1B81E00E1708F080E02E2F271B3D
:1014A000722FF1E0E21708F0F0E08F2BEF2DAC8DFA
:1014B000EA1BA1E0FE1608F0A0E0BE2FB81B8B2FA0
:1014C000F1E0EB1708F0F0E0AF2BED8D9E1B212F24
:1014D0009A1B01E00E948C00FA0187E892E0A901C2
:1014E000BF012AE030E00E94250EED960FB6F89479
:1014F000DEBF0FBECDBFCF91DF911F910F91FF9047
:10150000EF90DF90CF90BF90AF909F908F907F90A3
:101510006F905F904F903F902F900895DF93CF93FF
:10152000CDB7DEB728970FB6F894DEBF0FBECDBF9C
:1015300087E892E040E855E260E070E00E94B60B78
:1015400082E360E00E941D0F83E361E00E941D0FB3
:1015500084E361E00E941D0F85E361E00E941D0F9E
:1015600085E361E00E94890F80E00E94FF0A85E028
:101570000E94040B81E00E94F60A0E94150B19825A
:1015800091E09A8388E08B839C8383E08E838D83B4
:1015900080E48F8320E031E048E051E063E073E0D5
:1015A00098850E9499040E94510280E06AE070E0F0
:1015B0000E947F0482E06AEC7EED0E947F040E941C
:1015C000D8068DE060E070E040E40E94ED0184E028
:1015D00060E070E049E00E94ED0128960FB6F894B3
:1015E000DEBF0FBECDBFCF91DF910895882319F4E0
:1015F0008CB5806202C08CB58F7D8CBD08959CB582
:10160000937F982B9CBD08952CB5382F33702C7F79
:10161000322B3CBD2DB590E0959587959595879596
:1016200081702E7F822B8DBD08958AE061E00E943B
:10163000890F8AE061E00E941D0F8CB580618CBD2E
:101640008CB580648CBD8DE061E00E941D0F8BE045
:1016500061E00E941D0F089508951F920F920FB62A
:101660000F9211242F933F934F938F939F93EF9358
:10167000FF938091C00082FD1DC04091C600209163
:101680003F02309140022F5F3F4F2F7330708091A7
:101690004102909142022817390771F0E0913F0210
:1016A000F0914002E150FE4F40833093400220937E
:1016B0003F0202C08091C600FF91EF919F918F91F0
:1016C0004F913F912F910F900FBE0F901F90189543
:1016D000E0919302F0919402E05CFF4F819191912F
:1016E00020813181821B930B8F739070892B11F0B5
:1016F0000E942C0B08951F920F920FB60F92112487
:101700002F933F938F939F93EF93FF9320918302A7
:1017100030918402809185029091860228173907C2
:1017200031F48091C1008F7D8093C10014C0E0919D
:101730008502F0918602ED5BFD4F2081809185024C
:101740009091860201968F73907090938602809399
:1017500085022093C600FF91EF919F918F913F9159
:101760002F910F900FBE0F901F901895AF92BF92C0
:10177000DF92EF92FF920F931F93CF93DF93EC01D1
:101780007A018B01DD24403081EE580780E0680744
:1017900080E0780711F0DD24D39491E0A92EB12CDC
:1017A000EC89FD89DD2069F0C50108A002C0880F21
:1017B000991F0A94E2F7808360E079E08DE390E07E
:1017C00005C0108260E874E88EE190E0A8019701FE
:1017D0000E94DB0F215030404040504056954795C5
:1017E0003795279580E12030380720F0DD2011F073
:1017F000DD24D6CFE889F9893083EA89FB89208303
:1018000019A2EE89FF89408121E030E0C9010C8CEA
:1018100002C0880F991F0A94E2F7482B4083EE8993
:10182000FF894081C9010D8C02C0880F991F0A945D
:10183000E2F7482B4083EE89FF894081C9010E8C75
:1018400002C0880F991F0A94E2F7482B4083EE8963
:10185000FF8980810F8C02C0220F331F0A94E2F7A8
:10186000209528232083DF91CF911F910F91FF9026
:10187000EF90DF90BF90AF900895DC011C96ED9142
:10188000FC911D97E05CFF4F219131918081918106
:10189000281B390B2F733070C9010895DC011C9689
:1018A000ED91FC911D97E05CFF4F20813181E05468
:1018B000F040DF01AE5BBF4F8D919C9111972817CF
:1018C000390719F42FEF3FEF07C08D919C91E80F76
:1018D000F91F8081282F30E0C9010895DC011C9692
:1018E000ED91FC911D97E05CFF4F20813181E05428
:1018F000F040DF01AE5BBF4F8D919C91119728178F
:10190000390719F42FEF3FEF10C08D919C9111977B
:10191000E80FF91F20818D919C91119701968F738B
:10192000907011969C938E9330E0C9010895DC016C
:1019300091968C919197882339F05496ED91FC9172
:101940005597808186FFF9CF91961C920895CF9389
:10195000DF93EC01EE85FF85E05CFF4F2081318154
:10196000E054F0402F5F3F4F2F733070DF01AE5BCC
:10197000BF4F8D919C91119728173907D1F3E05CE7
:10198000FF4F80819181E054F040E80FF91F6083A0
:10199000EE85FF85E05CFF4F31832083EE89FF8970
:1019A000208181E090E00F8C02C0880F991F0A947B
:1019B000E2F7282B208381E089A3EC89FD898081CF
:1019C0008064808381E090E0DF91CF910895109250
:1019D0008A021092890288EE93E0A0E0B0E0809342
:1019E0008B0290938C02A0938D02B0938E0284E7B9
:1019F00091E090938802809387028FEF91E090931B
:101A000094028093930283E492E0909396028093F1
:101A1000950285EC90E0909398028093970284EC75
:101A200090E090939A028093990280EC90E09093DA
:101A30009C0280939B0281EC90E090939E028093A5
:101A40009D0282EC90E09093A00280939F0286EC2E
:101A500090E09093A2028093A10284E08093A3027D
:101A600083E08093A40287E08093A50285E08093C1
:101A7000A60281E08093A7020895CF93DF930E948E
:101A8000E20E0E948E0AC8E6DBE00E942307209740
:101A9000E1F30E94680BF9CFCF92DF92EF92FF92B1
:101AA0000F931F93CF93DF937C016B018A01C0E0FA
:101AB000D0E00FC0D6016D916D01D701ED91FC9181
:101AC0000190F081E02DC7010995C80FD91F015081
:101AD00010400115110571F7CE01DF91CF911F91D3
:101AE0000F91FF90EF90DF90CF900895EF92FF92CB
:101AF0000F931F938C01DC01ED91FC910190F0811B
:101B0000E02D6DE009957C01D801ED91FC910190EB
:101B1000F081E02DC8016AE009959C012E0D3F1D62
:101B2000C9011F910F91FF90EF900895CF93DF931C
:101B3000EC016115710519F420E030E00FC0DB0104
:101B40000D900020E9F71197A61BB70BE881F981EA
:101B50000280F381E02DAD0109959C01C901DF915F
:101B6000CF9108954F925F927F928F929F92AF9202
:101B7000BF92CF92DF92EF92FF920F931F93DF936A
:101B8000CF93CDB7DEB7A1970FB6F894DEBF0FBEE7
:101B9000CDBF2C01742ECB01223008F42AE019A20B
:101BA00031E2C32ED12CCC0EDD1E822E9924AA2424
:101BB000BB24672D752FA50194010E94DB0F7901CD
:101BC0008A01C801B701A50194010E94BC0F472DED
:101BD000461B0894C108D1084A3014F4405D01C086
:101BE000495CF6014083E114F1040105110521F07F
:101BF0007E2C5F2DC801DDCFC201B6010E94960D7B
:101C0000A1960FB6F894DEBF0FBECDBFCF91DF9186
:101C10001F910F91FF90EF90DF90CF90BF90AF900A
:101C20009F908F907F905F904F900895DC012115D9
:101C3000310541F4ED91FC910190F081E02D642F8C
:101C4000099508950E94B20D0895EF92FF920F93A7
:101C50001F937C010E94160E8C01C7010E94760D15
:101C60009C01200F311FC9011F910F91FF90EF9030
:101C70000895EF92FF920F931F939A017B0100E06A
:101C800010E0B801A7010E94160E1F910F91FF905E
:101C9000EF900895EF92FF920F931F939A01E62E13
:101CA000FF2400E010E0B801A7010E94160E1F916A
:101CB0000F91FF90EF900895CF92DF92EF92FF92F5
:101CC0000F931F936C01E62E9A01FF2400E010E0B1
:101CD000B801A7010E94160E8C01C6010E94760D64
:101CE000080F191FC8011F910F91FF90EF90DF900F
:101CF000CF9008950E94960D0895EF92FF920F9352
:101D00001F937C010E94960D8C01C7010E94760DE5
:101D1000080F191FC8011F910F91FF90EF900895B0
:101D20001F920F920FB60F9211242F933F938F9310
:101D30009F93AF93BF938091AD029091AE02A0911B
:101D4000AF02B091B0023091B1020196A11DB11D58
:101D5000232F2D5F2D3720F02D570196A11DB11D8A
:101D60002093B1028093AD029093AE02A093AF0294
:101D7000B093B0028091A9029091AA02A091AB0207
:101D8000B091AC020196A11DB11D8093A902909360
:101D9000AA02A093AB02B093AC02BF91AF919F9106
:101DA0008F913F912F910F900FBE0F901F9018951C
:101DB000019739F0880F991F880F991F0297019793
:101DC000F1F70895789484B5826084BD84B581600C
:101DD00084BD85B5826085BD85B5816085BDEEE633
:101DE000F0E0808181608083E1E8F0E01082808112
:101DF00082608083808181608083E0E8F0E0808180
:101E000081608083E1EBF0E0808184608083E0EB9F
:101E1000F0E0808181608083EAE7F0E08081846087
:101E200080838081826080838081816080838081E3
:101E3000806880831092C1000895CF93DF93482F6C
:101E400050E0CA0186569F4FFC0134914A575F4FBC
:101E5000FA018491882369F190E0880F991FFC01B1
:101E6000E859FF4FA591B491FC01EE58FF4FC59181
:101E7000D491662351F42FB7F8948C91932F9095B9
:101E800089238C93888189230BC0623061F42FB73A
:101E9000F8948C91932F909589238C938881832B30
:101EA00088832FBF06C09FB7F8948C91832B8C93A7
:101EB0009FBFDF91CF910895833071F0843028F473
:101EC0008130A1F0823021F514C08630B1F0873026
:101ED000D1F08430E9F404C0809180008F7703C092
:101EE000809180008F7D80938000089584B58F77E6
:101EF00002C084B58F7D84BD08958091B0008F7736
:101F00008093B00008958091B0008F7D8093B000E1
:101F10000895FF920F931F93F62E482F50E0CA01A9
:101F200082559F4FFC012491CA0186569F4FFC01A8
:101F300014914A575F4FFA0104910023C9F02223FC
:101F400019F0822F0E945C0FE02FF0E0EE0FFF1FD0
:101F5000EE58FF4FA591B4919FB7F894FF2021F45C
:101F60008C911095812302C08C91812B8C939FBF03
:101F70001F910F91FF900895629FD001739FF00110
:101F8000829FE00DF11D649FE00DF11D929FF00D09
:101F9000839FF00D749FF00D659FF00D9927729F40
:101FA000B00DE11DF91F639FB00DE11DF91FBD01CB
:101FB000CF0111240895A1E21A2EAA1BBB1BFD011B
:101FC0000DC0AA1FBB1FEE1FFF1FA217B307E40718
:101FD000F50720F0A21BB30BE40BF50B661F771F70
:101FE000881F991F1A9469F7609570958095909550
:101FF0009B01AC01BD01CF010895EE0FFF1F0590BD
:0A200000F491E02D0994F894FFCF4D
:10200A004572726F723A205472616E736D697420F0
:10201A00427566666572204572726F720045727209
:10202A006F723A2052656365697665722050485925
:10203A0020686561646572204572726F720045722C
:10204A00726F723A205265636569766572204F76BF
:10205A00657272756E004555493A20002E000A00D5
:10206A004465766963653A2000205665722E200021
:10207A0000000000A70C4C0D3D0C6E0C4E0C970C8A
:00000001FF
