:100000000C9403010C9430010C9430010C943001D9
:100010000C9430010C9430010C9430010C9430019C
:100020000C9430010C9430010C9430010C9430018C
:100030000C9430010C9430010C9430010C9430017C
:100040000C9430010C9430010C9430010C9430016C
:100050000C9430010C9430010C9430010C947B1101
:100060000C9430010C949A0B0C94E60C0C94300117
:100070000C9430010C9430010C9430010C9430013C
:100080000C9430010C9430010C9430010C9430012C
:100090000C94DA0B0C94250D0C9430010C94300167
:1000A0000C9430010C9430010C9430010C9430010C
:1000B0000C9430010C9430010C9430010C943001FC
:1000C0000C9430010C9430010C9430010C941A0CF7
:1000D0000C94640D0C9430010C945A0C0C94A30DE8
:1000E0000C94300100002100240027002A002D007C
:1000F0003000330001010000040107010A01000083
:100100002200250028002B002E00310034000201BF
:100110000000050108010B0100002000230026005B
:1001200029002C002F00320000010000030106010D
:10013000090105050505070508080808020202026D
:100140000A0A080804040404010101010101010173
:100150000303030303030303040707070C0C0C0C3E
:100160000C0C0C0C02020202060606060606060627
:100170000B0B0B0B0B0B0B0B0102102020080810B4
:100180002040102040800201020108040201010207
:1001900004081020408080402010080402018004E0
:1001A000020180402010080402010804020101023B
:1001B0000408102040800102040810204080000044
:1001C000090A02080B0C0D070603040100000000D9
:1001D000000000000000000000000000000000001F
:1001E0000000000000000000000011100F000000DF
:1001F00000000000000000000000000000000000FF
:1002000000000000160F11241FBECFEFD1E2DEBFA9
:10021000CDBF00E00CBF12E0A0E0B2E0E0EEF6E2FD
:1002200000E00BBF02C007900D92AC39B107D9F7BF
:100230001BBE15E0ACE9B2E001C01D92AC3CB107B9
:10024000E1F712E0C6E0D2E004C02297FE010E946E
:100250006A13C430D107C9F70E944C100C946E1376
:100260000C940000EF92FF920F93DF93CF93CDB7E2
:10027000DEB760970FB6F894DEBF0FBECDBFA82FD4
:10028000002309F461C07E010894E11CF11C88E0A0
:10029000F70111928A95E9F729833A834B835C83AE
:1002A0006D837E83AF83988780E2801BE82FFF27D2
:1002B000E7FDF0954D815E816F817885181684F099
:1002C0001D861E861F86188A882799278E1B9F0BDE
:1002D00004C076956795579547958A95D2F728C0BB
:1002E000202F332727FD3095DB01CA01022E04C0E1
:1002F000B695A795979587950A94D2F78D879E878F
:10030000AF87B88B04C0440F551F661F771FEA954F
:10031000D2F789819A81AB81BC8104C0B695A7953B
:10032000979587952A95D2F7482B592B6A2B7B2BCB
:1003300049875A876B877C8729853A854B855C85F9
:100340006D857E85AF8598898A2F60960FB6F89463
:10035000DEBF0FBECDBFCF91DF910F91FF90EF9029
:100360000895EF92FF920F93DF93CF93CDB7DEB74F
:1003700060970FB6F894DEBF0FBECDBFA82F002345
:1003800009F461C07E010894E11CF11C88E0F701CA
:1003900011928A95E9F729833A834B835C836D83B5
:1003A0007E83AF83988780E2801BE82FFF27E7FDDD
:1003B000F09549815A816B817C81181684F01986E9
:1003C0001A861B861C86882799278E1B9F0B04C0C4
:1003D000440F551F661F771F8A95D2F728C0202F1C
:1003E000332727FD3095DB01CA01022E04C0880F98
:1003F000991FAA1FBB1F0A94D2F789879A87AB87D8
:10040000BC8704C07695679557954795EA95D2F7CE
:100410008D819E81AF81B88504C0880F991FAA1F66
:10042000BB1F2A95D2F7482B592B6A2B7B2B4D8764
:100430005E876F87788B29853A854B855C856D85CE
:100440007E85AF8598898A2F60960FB6F894DEBFB7
:100450000FBECDBFCF91DF910F91FF90EF90089528
:100460001F93CF93DF93182FEB0160387105E8F1EC
:10047000CB018058904080589F4730F010E0812F8A
:10048000DF91CF911F91089585E360E00E94F11202
:10049000812F90E0805C9F4F8EBD0DB407FEFDCF95
:1004A0008EB5CE018F77907080589F4F8EBD0DB462
:1004B00007FEFDCF8EB5C078DF77CC0FCD2FCC1FD8
:1004C000DD0BD195CEBD0DB407FEFDCF8EB51EBCA4
:1004D0000DB407FEFDCF1EB585E361E00E94F11269
:1004E000812FDF91CF911F91089585E360E00E94F5
:1004F000F112812F90E0805C9F4F8EBD0DB407FEFE
:10050000FDCF8EB5CF77D070CEBD0DB407FEFDCF39
:100510008EB51EBC0DB407FEFDCF1EB585E361E0B0
:100520000E94F112DDCF0F931F93CF93DF93182F0B
:10053000EB01042F60387105E0F1CB018058904049
:1005400080589F4728F0DF91CF911F910F91089518
:1005500085E360E00E94F112812F90E080549F4F6C
:100560008EBD0DB407FEFDCF8EB5CE018F77907096
:1005700080589F4F8EBD0DB407FEFDCF8EB5C0785D
:10058000DF77CC0FCD2FCC1FDD0BD195CEBD0DB4B9
:1005900007FEFDCF8EB50EBD0DB407FEFDCF8EB5A7
:1005A00085E361E00E94F112DF91CF911F910F91DD
:1005B000089585E360E00E94F112812F90E080545D
:1005C0009F4F8EBD0DB407FEFDCF8EB5CF77D07097
:1005D000CEBD0DB407FEFDCF8EB50EBD0DB407FE2A
:1005E000FDCF8EB585E361E00E94F112DDCF4F9221
:1005F0005F926F927F928F929F92AF92BF92CF92B3
:10060000DF92EF92FF920F931F93DF93CF93CDB7BB
:10061000DEB7CF57D0400FB6F894DEBF0FBECDBFC8
:100620002C01A62E972EF42E8E2C81E0898388E84B
:100630008A831B829AEC9C838EED8D832E831F838D
:10064000988789870A871B8700E010E06E0108946D
:10065000C11CD11CF601E00FF11F89E0B8014081F7
:100660000E9493020F5F1F4F0A30110599F73BE07C
:10067000B32EBF0C8BE0B816E1F0CB2CDD24EAE002
:10068000F0E0CE0EDF1EFAE0CF16D10491F08A2DF5
:10069000992D9C0179010BE010E089E0B801F70188
:1006A00041917F010E9493020F5F1F4FC016D10638
:1006B000A4F7F2E0BF0E88E060E070E04B2D0E94EE
:1006C0009302882009F499C08FE060E070E00E94F6
:1006D000300287FD0DC08FE063E070E00E943002C1
:1006E00084FFF2CF8BE395E060E072E00E94551149
:1006F0008FE060E070E04EEF0E9493028DE060E0DA
:1007000070E040E40E949302772488249924AA246C
:10071000BB24CC24DD2400E024E0E22EF12C87E190
:10072000B7010E943002182F272D382D492D5A2D40
:100730006B2D7C2D8D2D902F08E00E94B101092F8B
:10074000B22FB10FE1E0B21708F0E0E0AE2FA30F37
:1007500021E0A31708F020E0122F140F21E0141756
:1007600008F020E0622E650E21E0651608F020E01A
:10077000422F460F21E0461708F020E0322F370FB6
:1007800021E0371708F020E0280F91E0281708F043
:1007900090E0900F7B2E8A2E912EA62CB42EC32E85
:1007A000D22E092F0894E108F1088FEFE8168FEF99
:1007B000F80609F0B4CFF201B183A28313836482F7
:1007C0004583368327839087C201C158DF4F0FB618
:1007D000F894DEBF0FBECDBFCF91DF911F910F9177
:1007E000FF90EF90DF90CF90BF90AF909F908F9051
:1007F0007F906F905F904F9008958DE060E070E083
:1008000042E00E94930260CF86E360E070E041E046
:100810000E9493028DE267E070E040E80E9493023C
:1008200088EC90E00E94C31186E360E070E040E055
:100830000E94930208953F924F925F926F927F922F
:100840008F929F92AF92BF92CF92DF92EF92FF92E0
:100850000F931F93CF93DF932C017B018DE060E01A
:1008600070E040E40E9493028DE061E070E041E0BE
:100870000E9493028FE061E070E00E94300285FDEB
:1008800016C084FDD0C08FE062E070E00E943002AC
:1008900084FDD0C08FE062E070E00E94300285FFEE
:1008A000E9CF8BE395E066E572E00E9455118DE09B
:1008B00060E070E040E40E94930280E160E070E05C
:1008C0000E9430024FE7342E382289F0C32DD0E049
:1008D00000E010E081E1B8010E943002F701E00F72
:1008E000F11F80830F5F1F4F0C171D079CF36624B9
:1008F00077248824AA24DD24EE24FF2400E0C4E029
:10090000D0E085E1BE010E943002182F9301482DEE
:100910005A2D6D2D7E2D8F2D902F08E00E94B10154
:10092000C22EA32FB42F052FF62EE72ED82EA92ED8
:1009300030E040E050E060E070E080E090E0C10E28
:10094000F1E0C11608F0F0E0E1E0A31708F0E0E004
:100950009F2E9A0EF1E09A1608F0F0E0EF2BF1E0EE
:10096000B41708F0F0E0BE2EBB0EE1E0BB1608F0B5
:10097000E0E0FE2BE1E0051708F0E0E01F2F100F8C
:10098000F1E0101708F0F0E0EF2BF1E0F61608F0B8
:10099000F0E0BE2FBF0DE1E0BF1508F0E0E0FE2B58
:1009A000E1E0E71608F0E0E0AF2FAE0DF1E0AE15A4
:1009B00008F0F0E0EF2BF1E0D81608F0F0E04E2F51
:1009C0004D0D31E04D1508F030E08F2F832B8A0D4F
:1009D0006C2C792C8B2CA12EDB2EEA2EF42E082FDA
:1009E00021979FEFCF3FD90709F08BCFF201C1824A
:1009F0009282B3821483B583A68347838087308233
:100A0000C201DF91CF911F910F91FF90EF90DF9086
:100A1000CF90BF90AF909F908F907F906F905F909E
:100A20004F903F9008958BE395E06DE172E00E9456
:100A300055113DCF8BE395E06EE372E00E945511B6
:100A400036CFEF92FF920F931F93082F7B01AB01DC
:100A5000507083E0602F70E00E94930210E00F5FFF
:100A60001F4F83E0B8014F2D0E9493021F910F91F9
:100A7000FF90EF9008959F92AF92BF92CF92DF9236
:100A8000EF92FF920F931F93DF93CF93CDB7DEB713
:100A900028970FB6F894DEBF0FBECDBFA22F2983D3
:100AA000F32F3A83E42F4B835C836D837E838F83A4
:100AB0009887DF2EAE2EEA2E952EF62EC72EB82E54
:100AC00083E26CE070E047E00E94930283E26DE015
:100AD00070E049EA0E94930283E26EE070E042E037
:100AE0000E94930283E26FE070E045E20E9493026D
:100AF00081E0D81609F433C182E0D81609F4C7C1E1
:100B000088E26CE070E040EE0E94930288E26DE0C3
:100B100070E04FE30E94930288E26EE070E04EE1E5
:100B20000E94930288E26FE070E040E00E9493022E
:100B30008AE26BE070E040EC0E9493028BE26BE093
:100B400070E04EEB0E9493024A2D4D0D88E062E06A
:100B500070E00E94930288E061E070E04E2D0E94F8
:100B60009302EE2009F08EC084E062E070E044E47D
:100B70000E94930281E0D81609F48EC000E010E0D4
:100B80008EE1B80145E80E9493020F5F1F4F0430C9
:100B90001105B1F783E264E070E04BE90E94930233
:100BA00083E265E070E048E80E94930287E264E037
:100BB00070E04DE80E949302992009F4A0C080E4FF
:100BC000E81609F4C4C080E2E81609F46DC1EE200D
:100BD00009F4A6C092E34F2D4295440F440F407C88
:100BE0008D2D880F880F480F490F8FE162E070E06C
:100BF0000E949302CC0CCC0CCC0C8CE1F822F69425
:100C0000F694FC0C8FE163E070E04F2D0E9493029C
:100C100080E4A81609F429C1A7FC34C188E0B816FD
:100C200009F402C180E1B81609F4E5C080E2B81603
:100C300009F4C8C080E4B81609F4ABC084E0A81673
:100C400009F49AC088E0A81609F463C084E1A816E4
:100C500009F45FC087E267E270E040E00E9493021F
:100C600028960FB6F894DEBF0FBECDBFCF91DF91AF
:100C70001F910F91FF90EF90DF90CF90BF90AF90BA
:100C80009F90089584E062E070E044E00E94930247
:100C900081E0D81609F072CF8EE160E070E048E4A0
:100CA0000E9493028EE161E070E048E20E949302AC
:100CB0008EE162E070E048E00E9493028EE163E022
:100CC00070E04EE00E94930283E264E070E040E74F
:100CD0000E94930283E265E070E048E80E9493027C
:100CE00087E264E070E047E80E94930287E265E0F3
:100CF00070E040E00E949302992009F060CF80E408
:100D0000E816E9F080E2E816D1F0EE2081F090E0FC
:100D100062CF87E266E270E048E20E9493029ACFD7
:100D200087E262E070E046E10E94930253CF87E2DF
:100D300062E070E04AE00E94930290E04CCF87E2CC
:100D400062E070E041E00E94930290E044CF87E2CD
:100D500062E070E042E00E94930292E33CCF8EE2B8
:100D600066E078E147E00E9493028EE267E078E176
:100D700046E10E949302C4CE87E266E270E040E161
:100D80000E94930287E267E270E040E00E949302D3
:100D900061CF87E26BE070E047E30E94930281E05D
:100DA000D81609F49CC082E0D81609F047CF87E234
:100DB00068E070E046E90E94930287E269E070E033
:100DC00042E04AC087E26BE070E045E30E94930294
:100DD00081E0D81609F470C082E0D81609F02ECF51
:100DE00087E268E070E04EE50E94930287E269E0E6
:100DF00070E041E031C087E26BE070E043E30E94C5
:100E0000930281E0D81609F480C082E0D81609F078
:100E100015CF87E268E070E04EEB0E94930287E214
:100E200069E070E040E018C087E26BE070E041E309
:100E30000E94930281E0D81609F45CC082E0D816C3
:100E400009F0FCCE87E268E070E04BE60E94930276
:100E500087E269E070E040E00E94930287E26AE086
:100E600070E04BE30E949302E9CE87E266E070E017
:100E700044E60E94930287E267E070E040E00E944F
:100E80009302CCCE87E266E070E040E2F2CF8EE2E1
:100E900066E078E147E00E9493028EE267E078E145
:100EA00046E00E9493022CCE87E262E070E046E0CA
:100EB0000E94930292E38FCE87E268E070E04AE9F5
:100EC0000E94930287E269E070E040E00E94930292
:100ED00087E26AE070E04AE10E949302AFCE87E2C7
:100EE00068E070E04DE10E94930287E269E070E003
:100EF00041E0ECCF87E268E070E04DE20E949302AF
:100F000087E269E070E040E0E1CF87E268E070E00E
:100F100042E50E94930287E269E070E040E0D6CFAC
:100F20002F923F924F925F926F927F928F929F92F9
:100F3000AF92BF92CF92DF92EF92FF920F931F93E7
:100F4000DF93CF93CDB7DEB7EF970FB6F894DEBF40
:100F50000FBECDBF6E010894C11CD11CC6016CE947
:100F600072E00E941B04CE010B966CE972E040E037
:100F70002BE030E00AE010E0EE240E94F7022A8124
:100F80002CAB3B813DAB4C814EAB8D818FAB9E81B9
:100F900098AFAF81A9AFB885BAAFE985EBAFFC8553
:100FA000FCA72D852DA73E853EA74F854FA7888995
:100FB00088AB998999ABAA89AAABBB89BBABC6019F
:100FC0006CE972E00E941B04EA81ECA3FB81FDA3A3
:100FD0002C812EA33D813FA34E8148A78F8189A7F5
:100FE00098859AA7A985ABA78EEAE82E82E0F82E0D
:100FF00020E030E040E050E060E070E080E090E031
:1010000008E00E94B101F92FD701BC90B20EE1E0D7
:10101000B21608F0E0E04E2E430E21E0431608F031
:1010200020E0322E340E21E0341608F020E0222E8B
:10103000250E21E0251608F020E0260F2D8B21E05B
:10104000BD89B61708F020E0270F2E8B21E0EE892E
:10105000E71708F020E0280F2F8B91E0281708F001
:1010600090E09F0F988F2B2D342D432D522D6D899D
:101070007E898F890894E108F108F6EAEF16F2E01C
:10108000FF0609F0BDCF20E130E0E20EF31E20E0C4
:1010900030E040E050E060E070E080E090E008E0A8
:1010A0000E94B101A32E942EA52FB62F172F082F23
:1010B000C92EF701D080D20E31E0D21608F030E010
:1010C000532E5A0C41E05A1408F040E0642E690C8B
:1010D00051E0691408F050E0752E7A0E61E07A163E
:1010E00008F060E0862E8B0E71E08B1608F070E041
:1010F000972E910E81E0911608F080E0A82EA00EA8
:1011000091E0A01608F090E09C0D998F2D2D352DC3
:10111000A301B4018A2D0894E108F108FEEAEF1654
:10112000F2E0FF0609F0BBCF20E130E0E20EF31E53
:1011300020E030E040E050E060E070E080E090E0EF
:1011400008E00E94B101F92FD7011C91120FE1E0D4
:10115000121708F0E0E0CE2EC30E21E0C31608F00F
:1011600020E0240F2A8F21E0BA8DB41708F020E088
:10117000250F2B8F21E0EB8DE51708F020E0260FDF
:101180002C8F21E03C8D361708F020E0270F2D8FA3
:1011900021E04D8D471708F020E0280F2E8F91E0B9
:1011A000281708F090E09F0F9F8F212F3C2D4A8D2C
:1011B0005B8D6C8D7D8D8E8D0894E108F108A6EB1A
:1011C000EA16A2E0FA0609F0BBCFBCA1ECA9BE0F5B
:1011D000BCAF21E0FCA1BF1708F020E08DA13DA924
:1011E000830F91E04DA1841708F090E0F22EF80EE5
:1011F00021E0F81608F020E0922B8EA1AEA98A0F0C
:1012000021E0BEA18B1708F020E0E92EE80E91E066
:10121000E81608F090E0292B8FA1EFA98E0F91E03E
:10122000FFA18F1708F090E0280F28A321E038A134
:10123000381708F020E0922B88A548AD840F21E0F4
:10124000A8A58A1708F020E0980F99A391E0B9A10A
:10125000B81708F090E0292B89A5E9AD8E0F31E091
:10126000F9A58F1708F030E0280F2AA391E028177E
:1012700008F090E0392B8AA52AAD820F91E04AA5AB
:10128000841708F090E0380F3BA321E0381708F0EE
:1012900020E0922B8BA5ABAD8A0F890F8DAF2CA5CB
:1012A0003DA54EA55FA568A979A98AA99BA901E0DA
:1012B0000E94B101BCADB21BE1E0FCADFB1708F030
:1012C000E0E02F2D231B322F21E0F31608F020E061
:1012D000F32FFE1BE1E03F1708F0E0E02E2B3E2D40
:1012E000341B432F31E0E41608F030E0E42FE21B1A
:1012F00021E04E1708F020E0322B48A1451B542F67
:1013000021E0A8A1A41708F020E0A52FA31B31E03D
:101310005A1708F030E0232B39A1361B632F31E038
:1013200049A1461708F030E0562F521B21E06517FF
:1013300008F020E0322B2AA1271B722F41E02AA1BE
:10134000271708F040E0672F631B21E0761708F0AD
:1013500020E0422B3BA1381B832F21E03BA1381713
:1013600008F020E0782F741B31E0871708F030E098
:10137000232B4DAD491B942F921B8B2F8B198EAFB6
:1013800031E0B81708F030E08F2F841921E0F8170A
:1013900008F020E0F82EF31A31E08F1508F030E065
:1013A000232B8E2F831931E0E81708F030E0E82E68
:1013B000E21A21E08E1508F020E0322B8A2F8219E4
:1013C00021E0A81708F020E0B82EB31A31E08B1501
:1013D00008F030E0232B852FAD898A1B31E05817A8
:1013E00008F030E0482E421A21E0841508F020E091
:1013F000322B862FBE898B1B41E0681708F040E036
:10140000382E331A21E0831508F020E0422B872F75
:10141000EF898E1B21E0781708F020E0282E241A8F
:1014200031E0821508F030E0232BF88D9F1B921BD2
:101430009FAF2D2D352DA301B4018A2D998D01E08B
:101440000E94B101AEAD2A0FF1E02A1708F0F0E0DA
:101450003F0DE1E03F1508F0E0E0AF2FA30FF1E012
:10146000A31708F0F0E0EF2B4E0D31E04E1508F019
:1014700030E0FE2FF40FE1E0F41708F0E0E03E2B3F
:101480005B0D41E05B1508F040E0E32FE50F31E034
:10149000E51708F030E0432B640D31E0641508F0E7
:1014A00030E0B42FB60F41E0B61708F040E0342B1F
:1014B000730D41E0731508F040E0032F070F31E092
:1014C000071708F030E0432B820D31E0821508F059
:1014D00030E0F42EF80E41E0F81608F040E0342B2E
:1014E0004FAD940F930F822F811B182F31E02817D7
:1014F00008F030E08A2F8C1941E0A81708F040E08E
:10150000A82FA31B3A2F51E08A1708F050E0452B73
:101510008F2F2A8D821B51E0F81708F050E0A82F7A
:10152000A41B4A2F61E08A1708F060E0562B8E2F2B
:10153000FB8D8F1B61E0E81708F060E0282F251B6A
:10154000522F71E0821708F070E0672B8B2FAC8D63
:101550008A1B71E0B81708F070E0B82FB61B6B2F2C
:10156000E1E08B1708F0E0E07E2BE02FFD8DEF1B14
:1015700081E00E1708F080E02E2F271B722FF1E07C
:10158000E21708F0F0E08F2BEF2DAE8DEA1BA1E003
:10159000FE1608F0A0E0BE2FB81B8B2FF1E0EB1772
:1015A00008F0F0E0AF2BEF8D9E1B212F9A1B01E07E
:1015B0000E943201FA018BE395E0A901BF012AE004
:1015C00030E00E944111EF960FB6F894DEBF0FBED7
:1015D000CDBFCF91DF911F910F91FF90EF90DF90E2
:1015E000CF90BF90AF909F908F907F906F905F90C3
:1015F0004F903F902F900895DF93CF93CDB7DEB7F4
:1016000028970FB6F894DEBF0FBECDBF8BE395E0F1
:1016100040E855E260E070E00E94E20D82E360E0A5
:101620000E942F1283E361E00E942F1284E361E0A5
:101630000E942F1285E361E00E942F1285E361E092
:101640000E94F11280E00E946C0B85E00E94710BF9
:1016500081E00E94620B0E94820B198291E09A83C2
:1016600088E08B839C8383E08E838D8380E48F83EB
:1016700020E031E048E051E063E073E098850E94AB
:101680003B050E94040480E06AE070E00E942105AE
:1016900082E06AEC7EED0E9421058DE060E070E062
:1016A00040E40E94930284E060E070E049E00E9420
:1016B000930228960FB6F894DEBF0FBECDBFCF9130
:1016C000DF910895882321F08CB58F7D8CBD08951E
:1016D0008CB580628CBD08959CB5937F982B9CBD82
:1016E00008952CB5382F33702C7F322B3CBD2DB58F
:1016F00090E0959587959595879581702E7F822BA3
:101700008DBD089585E361E00E94F11285E361E0FB
:101710000E942F128CB580618CBD8CB580648CBD0D
:1017200084E361E00E942F1283E361E00E942F12A4
:10173000089508951F920F920FB60F920BB60F9255
:1017400011242F933F934F938F939F93EF93FF9386
:101750008091C00082FD2AC04091C60020915B03A9
:1017600030915C032F5F3F4F2F73307080915D038A
:1017700090915E032817390759F0E0915B03F091CF
:101780005C03E55EFC4F408330935C0320935B0376
:10179000FF91EF919F918F914F913F912F910F90DA
:1017A0000BBE0F900FBE0F901F9018958091C60032
:1017B000EFCF08951F920F920FB60F920BB60F92B4
:1017C00011242F933F934F938F939F93EF93FF9306
:1017D0008091C80082FD2AC04091CE002091E30391
:1017E0003091E4032F5F3F4F2F7330708091E503FA
:1017F0009091E6032817390759F0E091E303F0913F
:10180000E403ED55FC4F40833093E4032093E3035E
:10181000FF91EF919F918F914F913F912F910F9059
:101820000BBE0F900FBE0F901F9018958091CE00A9
:10183000EFCF08951F920F920FB60F920BB60F9233
:1018400011242F933F934F938F939F93EF93FF9385
:101850008091D00082FD2AC04091D60020916B0477
:1018600030916C042F5F3F4F2F73307080916D0467
:1018700090916E042817390759F0E0916B04F091AC
:101880006C04E55DFB4F408330936C0420936B0444
:10189000FF91EF919F918F914F913F912F910F90D9
:1018A0000BBE0F900FBE0F901F9018958091D60021
:1018B000EFCF08951F920F920FB60F920BB60F92B3
:1018C00011242F933F934F938F939F93EF93FF9305
:1018D0008091300182FD2AC0409136012091F304AD
:1018E0003091F4042F5F3F4F2F7330708091F504D7
:1018F0009091F6042817390759F0E091F304F0911C
:10190000F404ED54FB4F40833093F4042093F3042C
:10191000FF91EF919F918F914F913F912F910F9058
:101920000BBE0F900FBE0F901F901895809136013F
:10193000EFCFE0914705F0914805E05CFF4F8191C2
:10194000919120813181821B930B8F739070892B31
:10195000D1F5E0916905F0916A05E05CFF4F819156
:10196000919120813181821B930B8F739070892B11
:1019700039F5E0918B05F0918C05E05CFF4F81918A
:10198000919120813181821B930B8F739070892BF1
:10199000A1F4E091AD05F091AE05E05CFF4F8191BF
:1019A000919120813181821B930B8F739070892BD1
:1019B00009F408950E94590C08950E94190CE9CF6A
:1019C0000E94D90BD6CF0E94990BC3CF1F920F92C2
:1019D0000FB60F920BB60F9211242F933F938F9354
:1019E0009F93EF93FF9320919F033091A0038091E9
:1019F000A1039091A2032817390709F1E091A103EF
:101A0000F091A203E15AFC4F20818091A1039091B3
:101A1000A20301968F7390709093A2038093A10309
:101A20002093C600FF91EF919F918F913F912F914D
:101A30000F900BBE0F900FBE0F901F9018958091C6
:101A4000C1008F7D8093C100EDCF1F920F920FB622
:101A50000F920BB60F9211242F933F938F939F9366
:101A6000EF93FF932091270430912804809129045B
:101A700090912A042817390709F1E0912904F0917F
:101A80002A04E951FC4F20818091290490912A0475
:101A900001968F73907090932A0480932904209369
:101AA000CE00FF91EF919F918F913F912F910F90D9
:101AB0000BBE0F900FBE0F901F9018958091C9001C
:101AC0008F7D8093C900EDCF1F920F920FB60F92BA
:101AD0000BB60F9211242F933F938F939F93EF9305
:101AE000FF932091AF043091B0048091B1049091A4
:101AF000B2042817390709F1E091B104F091B2045A
:101B0000E159FB4F20818091B1049091B20401967C
:101B10008F7390709093B2048093B1042093D60099
:101B2000FF91EF919F918F913F912F910F900BBE5D
:101B30000F900FBE0F901F9018958091D1008F7D50
:101B40008093D100EDCF1F920F920FB60F920BB67C
:101B50000F9211242F933F938F939F93EF93FF93B3
:101B600020913705309138058091390590913A05DB
:101B70002817390709F1E0913905F0913A05E95044
:101B8000FB4F20818091390590913A0501968F7322
:101B9000907090933A058093390520933601FF9118
:101BA000EF919F918F913F912F910F900BBE0F90CE
:101BB0000FBE0F901F901895809131018F7D8093FB
:101BC0003101EDCFDF92EF92FF920F931F93CF93EE
:101BD000DF93EC017A018B01DD24403081EE580760
:101BE00080E0680780E0780721F1DD24D394EC8958
:101BF000FD8981E090E008A002C0880F991F0A9437
:101C0000E2F7808360E079E08DE390E0A80197013E
:101C10000E94461321503040404050405695479511
:101C20003795279580E120303807D0F0DD20C1F0CE
:101C3000DD24EC89FD89108260E874E88EE190E093
:101C4000A80197010E944613215030404040504067
:101C5000569547953795279580E12030380730F71E
:101C6000E889F9893083EA89FB89208319A2EE8902
:101C7000FF89408121E030E0C9010C8C02C0880F4F
:101C8000991F0A94E2F7482B4083EE89FF8940812F
:101C9000C9010D8C02C0880F991F0A94E2F7482BE6
:101CA0004083EE89FF894081C9010E8C02C0880FF4
:101CB000991F0A94E2F7482B4083EE89FF898081BF
:101CC0000F8C02C0220F331F0A94E2F720952823BD
:101CD0002083DF91CF911F910F91FF90EF90DF90C4
:101CE0000895DC011C96ED91FC911D97E05CFF4F7F
:101CF0002191319180819181281B390B2F73307094
:101D0000C9010895DC011C96ED91FC911D97E05CE2
:101D1000FF4F20813181E054F040DF01AE5BBF4FC7
:101D20008D919C9111972817390749F08D919C91BD
:101D3000E80FF91F8081282F30E0C90108952FEFA7
:101D40003FEFC9010895DC011C96ED91FC911D97B0
:101D5000E05CFF4F20813181E054F040DF01AE5B59
:101D6000BF4F8D919C9111972817390791F08D9154
:101D70009C911197E80FF91F20818D919C911197EB
:101D800001968F73907011969C938E9330E0C901E9
:101D900008952FEF3FEFC9010895FC0181A1882329
:101DA00011F411A20895A489B5898C9186FFFDCF05
:101DB00011A20895CF93DF93EC01AE85BF85AD01ED
:101DC000405C5F4FFA01208131812F5F3F4F2F73BD
:101DD0003070FD01EE5BFF4F80819181281739073C
:101DE000D9F3FA0180819181A80FB91F6C93EE8518
:101DF000FF85E05CFF4F31832083EE89FF892081DE
:101E000081E090E00F8C02C0880F991F0A94E2F7DE
:101E1000282B208381E089A3EC89FD89808180645F
:101E2000808381E090E0DF91CF9108951F9310921D
:101E30003E0510923D0528EE33E040E050E020934F
:101E40003F053093400540934105509342056FE8AC
:101E500072E070933C0560933B058BE193E09093B7
:101E60004805809347058FE593E090934A0580935A
:101E7000490585EC90E090934C0580934B0584ECEC
:101E800090E090934E0580934D0580EC90E0909308
:101E9000500580934F0581EC90E09093520580931C
:101EA000510582EC90E0909354058093530586ECA5
:101EB00090E0909356058093550514E010935705D4
:101EC000B3E0B0935805A7E0A0935905F5E0F0936F
:101ED0005A05E1E0E0935B051092600510925F0502
:101EE0002093610530936205409363055093640528
:101EF00070935E0560935D0583EA93E090936A05B5
:101F00008093690587EE93E090936C0580936B0551
:101F10008DEC90E090936E0580936D058CEC90E0D5
:101F20009093700580936F0588EC90E09093720514
:101F30008093710589EC90E090937405809373050C
:101F40008AEC90E090937605809375058EEC90E096
:101F5000909378058093770510937905B0937A056F
:101F6000A0937B05F0937C05E0937D05109282059C
:101F70001092810520938305309384054093850555
:101F8000509386057093800560937F058BE294E003
:101F900090938C0580938B058FE694E090938E054B
:101FA00080938D0585ED90E09093900580938F054B
:101FB00084ED90E0909392058093910580ED90E000
:101FC000909394058093930581ED90E0909396050E
:101FD0008093950582ED90E0909398058093970506
:101FE00086ED90E090939A058093990510939B0558
:101FF000B0939C05A0939D05F0939E05E0939F05EB
:102000001092A4051092A3052093A5053093A60570
:102010004093A7055093A8057093A2056093A1056E
:1020200083EB94E09093AE058093AD0587EF94E049
:102030009093B0058093AF0585E391E09093B2054E
:102040008093B10584E391E09093B4058093B30548
:1020500080E391E09093B6058093B50581E391E02C
:102060009093B8058093B70582E391E09093BA0509
:102070008093B90586E391E09093BC058093BB05FE
:102080001093BD05B093BE05A093BF05F093C005A6
:10209000E093C1051F9108950E94CD110E94FC0A92
:1020A0000E94900789E99CE0892B29F00E94990CF5
:1020B0000E949007FBCF0E9490070E949007FBCFE1
:1020C000CF92DF92EF92FF920F931F93CF93DF9304
:1020D0007C016B01EA0141155105D9F000E010E0E7
:1020E000D6016D916D01D701ED91FC910190F081C8
:1020F000E02DC7011995080F191F219789F7C8010D
:10210000DF91CF911F910F91FF90EF90DF90CF90D3
:10211000089500E010E0F3CFEF92FF920F931F932A
:102120008C01DC01ED91FC910190F081E02D6DE0DE
:1021300019957C01D801ED91FC910190F081E02D81
:10214000C8016AE019959C012E0D3F1DC9011F9120
:102150000F91FF90EF9008954F925F927F928F9230
:102160009F92AF92BF92CF92DF92EF92FF920F9326
:102170001F93DF93CF93CDB7DEB7A1970FB6F89437
:10218000DEBF0FBECDBF2C01742ECB01223008F470
:1021900060C0822E9924AA24BB2419A221E2C22E57
:1021A000D12CCC0EDD1E0BC0405DF6014083E11446
:1021B000F1040105110501F17E2C5F2DC801672D89
:1021C000752FA50194010E94461379018A01C80167
:1021D000B701A50194010E942713472D461B0894BF
:1021E000C108D1084A3004F3495CF6014083E11488
:1021F000F1040105110501F7C114D10481F1D601E3
:102200000D900020E9F71197AC19BD09F20180810A
:102210009181FC0122813381C201B601AD01F90136
:1022200019959C01C901A1960FB6F894DEBF0FBEA7
:10223000CDBFCF91DF911F910F91FF90EF90DF9075
:10224000CF90BF90AF909F908F907F905F904F9076
:1022500008953AE0832E912CA12CB12C9ECF20E042
:1022600030E0E0CFDC012115310519F00E94AC10FF
:102270000895ED91FC910190F081E02D642F199566
:102280000895EF92FF920F931F937C010E943211E9
:102290008C01C7010E948C109C01200F311FC901C5
:1022A0001F910F91FF90EF9008950F931F93CF937D
:1022B000DF93EC0161157105D9F0DB010D90002071
:1022C000E9F71197A61BB70BE881F9810280F3812A
:1022D000E02DAD0119958C01CE010E948C10980162
:1022E000280F391FC901DF91CF911F910F910895D8
:1022F00000E010E0F1CF1F920F920FB60F92112461
:102300002F933F938F939F93AF93BF938091C70574
:102310009091C805A091C905B091CA053091CB052F
:102320000196A11DB11D232F2D5F2D3720F02D57B4
:102330000196A11DB11D2093CB058093C7059093F5
:10234000C805A093C905B093CA058091C3059091B3
:10235000C405A091C505B091C6050196A11DB11D8A
:102360008093C3059093C405A093C505B093C6059B
:10237000BF91AF919F918F913F912F910F900FBE81
:102380000F901F901895019739F0880F991F880FAB
:10239000991F02970197F1F70895789484B58260A8
:1023A00084BD84B5816084BD85B5826085BD85B5F9
:1023B000816085BDEEE6F0E0808181608083E1E8A8
:1023C000F0E01082808182608083808181608083E0
:1023D000E0E8F0E0808181608083E1EBF0E08081E3
:1023E00084608083E0EBF0E0808181608083E1E9BC
:1023F000F0E0808182608083808181608083E0E979
:10240000F0E0808181608083E1EAF0E08081826099
:102410008083808181608083E0EAF0E08081816058
:102420008083E1E2F1E0808182608083808181604D
:102430008083E0E2F1E0808181608083EAE7F0E080
:1024400080818460808380818260808380818160DC
:1024500080838081806880831092C1000895CF932B
:10246000DF93482F50E0CA0188589E4FFC013491F9
:102470004E5C5E4FFA0184918823B9F090E0880F9A
:10248000991FFC01EC51FF4FA591B491FC01E25062
:10249000FF4FC591D491662359F06230B9F09FB7D0
:1024A000F8948C91832B8C939FBFDF91CF910895EB
:1024B0002FB7F8948C91932F909589238C938881D2
:1024C000892388832FBFDF91CF9108952FB7F89488
:1024D0008C91932F909589238C938881832B88836B
:1024E0002FBFE3CF893009F45EC08A3070F08D30A1
:1024F00009F45FC08E30D0F0803109F46CC08131B6
:1025000009F463C08F30C9F10895843009F445C0DF
:102510008530B8F08730B9F1883048F58630A1F7BA
:102520008091B0008F778093B00008958B3009F4CC
:1025300046C08C30B0F08091A0008F7D8093A000C9
:102540000895823031F1833030F48130E9F684B57A
:102550008F7784BD0895809180008F77809380006D
:10256000089580919000877F8093900008958091D6
:1025700090008F77809390000895809120018F774D
:102580008093200108958091B0008F7D8093B000EA
:10259000089584B58F7D84BD0895809180008F7DDE
:1025A000809380000895809190008F7D80939000AB
:1025B00008958091A000877F8093A0000895809166
:1025C000A0008F778093A000089580912001877FDD
:1025D000809320010895809120018F7D80932001B8
:1025E0000895FF920F931F93F62E482F50E0CA01D3
:1025F00082549E4FFC012491CA0188589E4FFC01D1
:1026000004914E5C5E4FFA011491112399F022233C
:10261000D1F4E12FF0E0EE0FFF1FE250FF4FA59144
:10262000B4919FB7F894FF2049F48C9100958023D2
:102630008C939FBF1F910F91FF9008958C91802BD9
:102640008C939FBFF7CF822F0E947212E2CF629FBE
:10265000D001739FF001829FE00DF11D649FE00D9A
:10266000F11D929FF00D839FF00D749FF00D659FFB
:10267000F00D9927729FB00DE11DF91F639FB00DFA
:10268000E11DF91FBD01CF0111240895A1E21A2E09
:10269000AA1BBB1BFD010DC0AA1FBB1FEE1FFF1F06
:1026A000A217B307E407F50720F0A21BB30BE40B56
:1026B000F50B661F771F881F991F1A9469F760959D
:1026C0007095809590959B01AC01BD01CF01089557
:1026D000EE0FFF1F0590F491E02D1994F894FFCFB1
:1026E0004572726F723A205472616E736D69742014
:1026F000427566666572204572726F72004572722D
:102700006F723A2052656365697665722050485948
:1027100020686561646572204572726F720045724F
:10272000726F723A205265636569766572204F76E2
:10273000657272756E00507265616D626C652064C1
:102740006574656374696F6E2074696D656F757407
:10275000004555493A20002E000A00446576696319
:10276000653A2000205665722E200000000000DA35
:0C2770000E6010710EA30E820ECD0E0044
:00000001FF
