:100000000C9462000C948A000C948A000C948A0070
:100010000C948A000C948A000C948A000C948A0038
:100020000C948A000C948A000C948A000C948A0028
:100030000C948A000C948A000C948A000C948A0018
:100040000C94C00D0C948A000C94A10A0C94EF0A35
:100050000C948A000C948A000C948A000C948A00F8
:100060000C948A000C948A000000000024002700F1
:100070002A0000000000250028002B0000000000DE
:1000800023002600290004040404040404040202DA
:100090000202020203030303030301020408102007
:1000A0004080010204081020010204081020000012
:1000B0000007000201000003040600000000000029
:1000C00000005B0C11241FBECFEFD8E0DEBFCDBF18
:1000D00011E0A0E0B1E0EAE6FEE102C005900D9279
:1000E000A03AB107D9F712E0A0EAB1E001C01D9231
:1000F000A23DB107E1F710E0C4ECD0E004C02297C4
:10010000FE010E942F0FC23CD107C9F70E94B10C1B
:100110000C94330F0C940000EF92FF920F93DF9337
:10012000CF93CDB7DEB760970FB6F894DEBF0FBEA2
:10013000CDBFA82F002309F461C07E010894E11C03
:10014000F11C88E0F70111928A95E9F729833A8337
:100150004B835C836D837E83AF83988780E2801BB3
:10016000E82FFF27E7FDF0954D815E816F8178854F
:10017000181684F01D861E861F86188A88279927E0
:100180008E1B9F0B04C076956795579547958A956A
:10019000D2F728C0202F332727FD3095DB01CA0175
:1001A000022E04C0B695A795979587950A94D2F725
:1001B0008D879E87AF87B88B04C0440F551F661F7D
:1001C000771FEA95D2F789819A81AB81BC8104C0FF
:1001D000B695A795979587952A95D2F7482B592BD1
:1001E0006A2B7B2B49875A876B877C8729853A85C1
:1001F0004B855C856D857E85AF8598898A2F609655
:100200000FB6F894DEBF0FBECDBFCF91DF910F9137
:10021000FF90EF900895EF92FF920F93DF93CF93AB
:10022000CDB7DEB760970FB6F894DEBF0FBECDBF77
:10023000A82F002309F461C07E010894E11CF11C81
:1002400088E0F70111928A95E9F729833A834B8375
:100250005C836D837E83AF83988780E2801BE82F69
:10026000FF27E7FDF09549815A816B817C81181643
:1002700084F019861A861B861C86882799278E1B70
:100280009F0B04C0440F551F661F771F8A95D2F736
:1002900028C0202F332727FD3095DB01CA01022E0D
:1002A00004C0880F991FAA1FBB1F0A94D2F7898721
:1002B0009A87AB87BC8704C0769567955795479515
:1002C000EA95D2F78D819E81AF81B88504C0880FF1
:1002D000991FAA1FBB1F2A95D2F7482B592B6A2BAF
:1002E0007B2B4D875E876F87788B29853A854B8579
:1002F0005C856D857E85AF8598898A2F60960FB65F
:10030000F894DEBF0FBECDBFCF91DF910F91FF906C
:10031000EF9008951F93CF93DF93182FEB01603870
:100320007105C8F48AE060E00E94B90E812F90E068
:10033000805C9F4F8EBD0DB407FEFDCF8EB5CF778D
:10034000D070CEBD0DB407FEFDCF8EB51EBC0DB472
:1003500007FEFDCF2FC0CB018058904080589F47AB
:1003600010F010E02CC08AE060E00E94B90E812FEE
:1003700090E0805C9F4F8EBD0DB407FEFDCF8EB523
:10038000CE018F77907080589F4F8EBD0DB407FEC1
:10039000FDCF8EB5C078DF77CC0FCD2FCC1FDD0B16
:1003A000D195CEBD0DB407FEFDCF8EB51EBC0DB4EC
:1003B00007FEFDCF1EB58AE061E00E94B90E812FD5
:1003C000DF91CF911F9108950F931F93CF93DF93E8
:1003D000182FEB01042F60387105C8F48AE060E043
:1003E0000E94B90E812F90E080549F4F8EBD0DB4B6
:1003F00007FEFDCF8EB5CF77D070CEBD0DB407FE12
:10040000FDCF8EB50EBD0DB407FEFDCF2DC0CB01C7
:100410008058904080589F4760F58AE060E00E94D5
:10042000B90E812F90E080549F4F8EBD0DB407FE12
:10043000FDCF8EB5CE018F77907080589F4F8EBDC7
:100440000DB407FEFDCF8EB5C078DF77CC0FCD2F72
:10045000CC1FDD0BD195CEBD0DB407FEFDCF8EB503
:100460000EBD0DB407FEFDCF8EB58AE061E00E949F
:10047000B90EDF91CF911F910F91089586E360E04F
:1004800070E041E00E94E4018DE267E070E040E846
:100490000E94E40188EC90E00E94080E86E360E090
:1004A00070E040E00E94E40108953F924F925F9215
:1004B0006F927F928F929F92AF92BF92CF92DF9274
:1004C000EF92FF920F931F93CF93DF937C016B0109
:1004D0008DE060E070E040E40E94E4018DE061E0C6
:1004E00070E041E00E94E40129C087EA92E060E008
:1004F00071E012C084FF05C087EA92E062E171E01A
:100500000BC08FE062E070E00E948A0184FF16C099
:1005100087EA92E063E371E00E94AD0D8DE060E058
:1005200070E040E40E94E40180E160E070E00E943D
:100530008A013FE7332E382271F008C08FE061E076
:1005400070E00E948A0185FFD5CFCFCF00E010E098
:10055000C32DD0E015C05524662477248824BB24FD
:10056000CC24DD2400E0C4E0D0E00EC081E1B8017D
:100570000E948A01F601E00FF11F80830F5F1F4F79
:100580000C171D079CF3E7CF85E1BE010E948A018D
:10059000182F252D362D472D582D6B2D7C2D8D2D6B
:1005A000902F08E00E940B01A22EA32FB42F052F3D
:1005B000D62EC72EB82E892E30E040E050E060E005
:1005C00070E080E090E0A10EF1E0A11608F0F0E00C
:1005D000E1E0A31708F0E0E04F2E4A0EF1E04A16E2
:1005E00008F0F0E0EF2BF1E0B41708F0F0E09E2EF9
:1005F0009B0EE1E09B1608F0E0E0FE2BE1E0051722
:1006000008F0E0E01F2F100FF1E0101708F0F0E005
:10061000EF2BF1E0D61608F0F0E0BE2FBD0DE1E0C3
:10062000BD1508F0E0E0FE2BE1E0C71608F0E0E0C1
:10063000AF2FAC0DF1E0AC1508F0F0E0EF2BF1E0DE
:10064000B81608F0F0E04E2F4B0D31E04B1508F0D6
:1006500030E08F2F832B880D5A2C642C792C812E1F
:10066000BB2ECA2ED42E082F21979FEFCF3FD9073C
:1006700009F08ACFF701A182428293821483B58365
:10068000A683478380873082C701DF91CF911F9176
:100690000F91FF90EF90DF90CF90BF90AF909F9021
:1006A0008F907F906F905F904F903F900895EF9262
:1006B000FF920F931F93CF93DF937C018B018DE00B
:1006C00060E070E040E40E94E401C0E0D0E009C0D6
:1006D000F701EC0FFD1F89E0BE0140810E94E4019B
:1006E0002196C017D107A4F3402F4E5F88E060E049
:1006F00070E00E94E4018DE060E070E042E00E9462
:10070000E4018FE060E070E00E948A0187FF05C08D
:1007100087EA92E06BE471E00BC08FE063E070E089
:100720000E948A0184FFEDCF87EA92E069E571E0DB
:100730000E94AD0D8FE060E070E04EEF0E94E4019A
:100740008DE060E070E040E40E94E401DF91CF9131
:100750001F910F91FF90EF9008954F925F926F92CB
:100760007F928F929F92AF92BF92CF92DF92EF9241
:10077000FF920F931F93DF93CF93CDB7DEB7CF5781
:10078000D0400FB6F894DEBF0FBECDBF7C016B0129
:1007900081E0898388E88A831B829AEC9C838EEDB2
:1007A0008D832E831F83988789870A871B8744231D
:1007B00059F0DB01FE013C96642F70E09E01260F8C
:1007C000371F245F3F4F07C0CE0101966BE070E0FA
:1007D0001DC08D918193E217F307D9F7AB01465FF6
:1007E0005F4F20E030E08E010F5F1F4FF601E20FF8
:1007F000F31FD801A20FB31F8C9180832F5F3F4F4F
:10080000421753079CF7655F7F4FC6010E9457034D
:1008100055246624772488249924AA24BB2400E044
:1008200044E0C42ED12C87E1B6010E948A01182F22
:10083000252D362D472D582D692D7A2D8B2D902F56
:1008400008E00E940B01092FB22FB10FE1E0B217AF
:1008500008F0E0E0AE2FA30F21E0A31708F020E09E
:10086000122F140F21E0141708F020E0422E450E3D
:1008700021E0451608F020E0422F460F21E0461700
:1008800008F020E0322F370F21E0371708F020E082
:10089000280F91E0281708F090E0900F5B2E6A2E49
:1008A000712E842C942EA32EB22E092F0894C108E9
:1008B000D1088FEFC8168FEFD80609F0B4CFF70133
:1008C000B183A28313834482458336832783908731
:1008D000C701C158DF4F0FB6F894DEBF0FBECDBFC2
:1008E000CF91DF911F910F91FF90EF90DF90CF900C
:1008F000BF90AF909F908F907F906F905F904F9040
:100900000895EF92FF920F931F93082F7B01AB0185
:10091000507083E0602F70E00E94E40110E00F5FF0
:100920001F4F83E0B8014F2D0E94E4011F910F91EA
:10093000FF90EF9008959F92AF92BF92CF92DF9277
:10094000EF92FF920F931F93DF93CF93CDB7DEB754
:1009500028970FB6F894DEBF0FBECDBFA22F298314
:10096000F32F3A83342F4B835C836D837E838F8395
:100970009887A32EEF2EFA2E952ED62EB72EC82EA0
:1009800083E26CE070E047E00E94E40183E26DE006
:1009900070E049EA0E94E40183E26EE070E042E028
:1009A0000E94E40183E26FE070E045E20E94E4010E
:1009B0008EE266E078E147E00E94E4018EE267E0C3
:1009C00078E146E10E94E40188E26CE070E040EEEC
:1009D0000E94E40188E26DE070E04FE30E94E401D0
:1009E00088E26EE070E04EE10E94E40188E26FE090
:1009F00070E040E00E94E4018AE26BE070E040ECCD
:100A00000E94E4018BE26BE070E04EEB0E94E40197
:100A10004E2D4A0D88E062E070E00E94E40188E01B
:100A200061E070E04F2D0E94E401FF2029F484E092
:100A300062E070E044E404C084E062E070E044E01E
:100A40000E94E40181E0E81679F58EE160E070E053
:100A500045E80E94E4018EE161E070E045E80E9413
:100A6000E4018EE162E070E045E80E94E4018EE17D
:100A700063E070E045E80E94E40183E264E070E036
:100A800040E70E94E40183E265E070E048E80E94EC
:100A9000E40187E264E070E047E80E94E40187E255
:100AA00065E070E040E01CC000E010E08EE1B801BD
:100AB00045E80E94E4010F5F1F4F04301105B1F7B4
:100AC00083E264E070E04BE90E94E40183E265E0C8
:100AD00070E048E80E94E40187E264E070E04DE8DD
:100AE0000E94E4019920D1F080E4F81629F487E20D
:100AF00062E070E042E00EC080E2F81629F487E27E
:100B000062E070E046E006C0FF2031F487E262E078
:100B100070E046E10E94E40192E314C080E4F8161C
:100B200019F080E2F81629F487E262E070E041E013
:100B300006C0FF2031F487E262E070E04AE00E94E4
:100B4000E40190E04D2D4295440F440F407C8E2DE2
:100B5000880F880F480F490F8FE162E070E00E9414
:100B6000E401BB0CBB0CBB0C8CE1D822D694D69410
:100B7000DB0C8FE163E070E04D2D0E94E40180E426
:100B8000A81629F487E266E070E044E606C0A7FEF6
:100B90000CC087E266E070E040E20E94E40187E278
:100BA00067E070E040E00E94E40188E0C816B9F414
:100BB00087E26BE070E041E30E94E40181E0E81627
:100BC00029F487E268E070E04DE239C082E0E8167F
:100BD00009F07CC087E268E070E04BE619C080E174
:100BE000C816E9F487E26BE070E043E30E94E40199
:100BF00081E0E81629F487E268E070E042E51FC072
:100C000082E0E81609F062C087E268E070E04EEB2F
:100C10000E94E40187E269E070E040E04FC080E2BA
:100C2000C81611F587E26BE070E045E30E94E4012D
:100C300081E0E81659F487E268E070E04AE90E9432
:100C4000E40187E269E070E040E024C082E0E81659
:100C5000E9F587E268E070E04EE50E94E40187E292
:100C600069E070E041E02AC080E4C81679F587E2C7
:100C70006BE070E047E30E94E40181E0E81689F44C
:100C800087E268E070E04DE10E94E40187E269E0FC
:100C900070E041E00E94E40187E26AE070E04AE12E
:100CA00013C082E0E81691F487E268E070E046E95C
:100CB0000E94E40187E269E070E042E00E94E40102
:100CC00087E26AE070E04BE30E94E40184E0A8164A
:100CD00059F487E266E270E040E10E94E40187E2B5
:100CE00067E270E040E00AC088E0A81619F084E1ED
:100CF000A81631F487E266E270E048E20E94E4015F
:100D000087E267E270E040E00E94E40128960FB6B7
:100D1000F894DEBF0FBECDBFCF91DF911F910F9131
:100D2000FF90EF90DF90CF90BF90AF909F9008958D
:100D30002F923F924F925F926F927F928F929F92EB
:100D4000AF92BF92CF92DF92EF92FF920F931F93D9
:100D5000DF93CF93CDB7DEB7ED970FB6F894DEBF34
:100D60000FBECDBF7E010894E11CF11CC70160EAF3
:100D700071E00E945502CE010A9660EA71E040E0FF
:100D80002BE030E00AE010E00E94AD032A812AAB9C
:100D90003B813BAB4C814CAB8D818DAB9E819EAB3F
:100DA000AF81AFABB885B8AFE985E9AFFB85FAA7EE
:100DB0002C852BA73D853CA74E854DA78F858EA7FB
:100DC00098899FA7A989A8ABBA89B9ABC70160EA7E
:100DD00071E00E945502EA81EAA3FB81FBA32C810A
:100DE0002CA33D813DA34E814EA38F818FA3988577
:100DF00098A7A985A9A782EBE82E81E0F82E20E02C
:100E000030E040E050E060E070E080E090E008E03A
:100E10000E940B01F92FD701BC90B20EE1E0B2168F
:100E200008F0E0E04E2E430E21E0431608F020E0EB
:100E3000322E340E21E0341608F020E0222E250E4A
:100E400021E0251608F020E0260F2B8B21E0BB893E
:100E5000B61708F020E0270F2C8B21E0EC89E7176C
:100E600008F020E0280F2D8B91E0281708F090E083
:100E70009F0F9E8B2B2D342D432D522D6B897C89FA
:100E80008D890894E108F108FAEAEF16F1E0FF060F
:100E900009F0BDCF20E130E0E20EF31E20E030E0AB
:100EA00040E050E060E070E080E090E008E00E9408
:100EB0000B01A32E942EA52FB62F172F082FD92E56
:100EC000F701C080C20E31E0C21608F030E0532EA8
:100ED0005A0C41E05A1408F040E0642E690C51E0CD
:100EE000691408F050E0752E7A0E61E07A1608F069
:100EF00060E0862E8B0E71E08B1608F070E0972E66
:100F0000910E81E0911608F080E0A82EA00E91E0ED
:100F1000A01608F090E09D0D9F8B2C2D352DA30180
:100F2000B4018A2D0894E108F108F2EBEF16F1E024
:100F3000FF0609F0BBCF20E130E0E20EF31E20E017
:100F400030E040E050E060E070E080E090E008E0F9
:100F50000E940B01F92FD7011C91120FE1E012172B
:100F600008F0E0E0DE2ED30E21E0D31608F020E0FA
:100F7000240F288F21E0B88DB41708F020E0250F4A
:100F8000298F21E0E98DE51708F020E0260F2A8F50
:100F900021E03A8D361708F020E0270F2B8F21E053
:100FA0004B8D471708F020E0280F2C8F91E0281771
:100FB00008F090E09F0F9D8F212F3D2D488D598D7A
:100FC0006A8D7B8D8C8D0894E108F108AAEBEA16F6
:100FD000A1E0FA0609F0BBCFBAA1EAA9BE0FBAAFE9
:100FE00021E0FAA1BF1708F020E08BA13BA9830FF5
:100FF00091E04BA1841708F090E0F22EF80E21E06A
:10100000F81608F020E0922B8CA1ACA98A0F21E001
:10101000BCA18B1708F020E0E92EE80E91E0E8165D
:1010200008F090E0292B8DA1EDA98E0F91E0FDA194
:101030008F1708F090E0280F2E8F21E03E8D381793
:1010400008F020E0922B8EA14EA9840F21E0AEA1E2
:101050008A1708F020E0980F9F8F91E0BF8DB81796
:1010600008F090E0292B8FA1EFA98E0F31E0FFA1AE
:101070008F1708F030E0280F28A391E0281708F018
:1010800090E0392B88A528AD820F91E048A5841700
:1010900008F090E0380F39A321E0381708F020E07D
:1010A000922B89A5A9AD8A0F890F8BAF2AA53BA5E5
:1010B0004CA55DA56EA57FA588A999A901E00E9410
:1010C0000B01BAADB21BE1E0FAADFB1708F0E0E0AE
:1010D0002F2D231B322F21E0F31608F020E0F32FF1
:1010E000FE1BE1E03F1708F0E0E02E2B3E2D341B05
:1010F000432F31E0E41608F030E0E42FE21B21E05A
:101100004E1708F020E0322B4E8D451B542F21E066
:10111000AE8DA41708F020E0A52FA31B31E05A17CD
:1011200008F030E0232B3F8D361B632F31E04F8DCD
:10113000461708F030E0562F521B21E0651708F0E3
:1011400020E0322B28A1271B722F41E028A127176E
:1011500008F040E0672F631B21E0761708F020E0DD
:10116000422B39A1381B832F21E039A1381708F011
:1011700020E0782F741B31E0871708F030E0232B34
:101180004BAD491B942F921B8B2F8B198CAF31E0E9
:10119000B81708F030E08F2F841921E0F81708F015
:1011A00020E0F82EF31A31E08F1508F030E0232B01
:1011B0008E2F831931E0E81708F030E0E82EE21AAC
:1011C00021E08E1508F020E0322B8A2F821921E0D1
:1011D000A81708F020E0B82EB31A31E08B1508F0FC
:1011E00030E0232B852FAB898A1B31E0581708F09C
:1011F00030E0482E421A21E0841508F020E0322B1E
:10120000862FBC898B1B41E0681708F040E0382E20
:10121000331A21E0831508F020E0422B872FED8957
:101220008E1B21E0781708F020E0282E241A31E0E8
:10123000821508F030E0232BFE899F1B921B9DAF87
:101240002C2D352DA301B4018A2D9F8901E00E9428
:101250000B01ACAD2A0FF1E02A1708F0F0E03F0DCA
:10126000E1E03F1508F0E0E0AF2FA30FF1E0A31796
:1012700008F0F0E0EF2B4E0D31E04E1508F030E0B5
:10128000FE2FF40FE1E0F41708F0E0E03E2B5B0DD9
:1012900041E05B1508F040E0E32FE50F31E0E51792
:1012A00008F030E0432B640D31E0641508F030E0C5
:1012B000B42FB60F41E0B61708F040E0342B730DA1
:1012C00041E0731508F040E0032F070F31E00717E6
:1012D00008F030E0432B820D31E0821508F030E059
:1012E000F42EF80E41E0F81608F040E0342B4DAD36
:1012F000940F930F822F811B182F31E0281708F0CD
:1013000030E08A2F8D1941E0A81708F040E0A82F9F
:10131000A31B3A2F51E08A1708F050E0452B8F2F7E
:10132000288D821B51E0F81708F050E0A82FA41B6D
:101330004A2F61E08A1708F060E0562B8E2FF98D56
:101340008F1B61E0E81708F060E0282F251B522F63
:1013500071E0821708F070E0672B8B2FAA8D8A1B33
:1013600071E0B81708F070E0B82FB61B6B2FE1E002
:101370008B1708F0E0E07E2BE02FFB8DEF1B81E068
:101380000E1708F080E02E2F271B722FF1E0E217D6
:1013900008F0F0E08F2BEF2DAC8DEA1BA1E0FE16DC
:1013A00008F0A0E0BE2FB81B8B2FF1E0EB1708F080
:1013B000F0E0AF2BED8D9E1B212F9A1B01E00E94C8
:1013C0008C00FA0187EA92E0A901BF012AE030E02F
:1013D0000E94990DED960FB6F894DEBF0FBECDBFFB
:1013E000CF91DF911F910F91FF90EF90DF90CF9001
:1013F000BF90AF909F908F907F906F905F904F9035
:101400003F902F900895DF93CF93CDB7DEB7289705
:101410000FB6F894DEBF0FBECDBF87EA92E040E87A
:1014200055E260E070E00E942A0B82E360E00E94D7
:101430004D0E83E361E00E944D0E84E361E00E9463
:101440004D0E85E361E00E944D0E85E361E00E9450
:10145000B90E80E00E94730A85E00E94780A81E05C
:101460000E946A0A0E94890A80E4898382E08A8352
:1014700084E18B831C8283E08E838D8380E28F8363
:1014800020E432E044E150E063E073E098850E949C
:101490009B040E943E0280E06AE070E00E948104AA
:1014A00082E06AEC7EED0E9481048DE060E070E0F5
:1014B00040E40E94E40184E060E070E049E00E94C2
:1014C000E40128960FB6F894DEBF0FBECDBFCF91D2
:1014D000DF910895882319F48CB5806202C08CB521
:1014E0008F7D8CBD08959CB5937F982B9CBD0895EE
:1014F0002CB5382F33702C7F322B3CBD2DB590E0AE
:10150000959587959595879581702E7F822B8DBDBA
:1015100008958AE061E00E94B90E8AE061E00E94CD
:101520004D0E8CB580618CBD8CB580648CBD8DE01A
:1015300061E00E944D0E8BE061E00E944D0E089527
:1015400008951F920F920FB60F9211242F933F937D
:101550004F938F939F93EF93FF938091C00082FDF1
:101560001DC04091C60020915F02309160022F5F44
:101570003F4F2F7330708091610290916202281763
:10158000390771F0E0915F02F0916002E15EFD4F7A
:1015900040833093600220935F0202C08091C600B6
:1015A000FF91EF919F918F914F913F912F910F90CC
:1015B0000FBE0F901F901895E091B302F091B40206
:1015C000E05CFF4F8191919120813181821B930BCF
:1015D0008F739070892B11F00E94A00A08951F92BA
:1015E0000F920FB60F9211242F933F938F939F93D7
:1015F000EF93FF932091A3023091A4028091A50262
:101600009091A6022817390731F48091C1008F7D8F
:101610008093C10014C0E091A502F091A602ED599B
:10162000FD4F20818091A5029091A60201968F73B3
:1016300090709093A6028093A5022093C600FF911C
:10164000EF919F918F913F912F910F900FBE0F902F
:101650001F901895AF92BF92DF92EF92FF920F9377
:101660001F93CF93DF93EC017A018B01DD2440308F
:1016700081EE580780E0680780E0780711F0DD24EC
:10168000D39491E0A92EB12CEC89FD89DD2069F07D
:10169000C50108A002C0880F991F0A94E2F7808351
:1016A00060E079E08DE390E005C0108260E874E8C6
:1016B0008EE190E0A80197010E940B0F215030406D
:1016C00040405040569547953795279580E120300A
:1016D000380720F0DD2011F0DD24D6CFE889F98924
:1016E0003083EA89FB89208319A2EE89FF89408132
:1016F00021E030E0C9010C8C02C0880F991F0A94C8
:10170000E2F7482B4083EE89FF894081C9010D8CA7
:1017100002C0880F991F0A94E2F7482B4083EE8994
:10172000FF894081C9010E8C02C0880F991F0A945D
:10173000E2F7482B4083EE89FF8980810F8C02C03D
:10174000220F331F0A94E2F7209528232083DF918C
:10175000CF911F910F91FF90EF90DF90BF90AF90CE
:101760000895DC011C96ED91FC911D97E05CFF4F04
:101770002191319180819181281B390B2F73307019
:10178000C9010895DC011C96ED91FC911D97E05C68
:10179000FF4F20813181E054F040DF01AE5BBF4F4D
:1017A0008D919C9111972817390719F42FEF3FEF6E
:1017B00007C08D919C91E80FF91F8081282F30E0A0
:1017C000C9010895DC011C96ED91FC911D97E05C28
:1017D000FF4F20813181E054F040DF01AE5BBF4F0D
:1017E0008D919C9111972817390719F42FEF3FEF2E
:1017F00010C08D919C911197E80FF91F20818D9158
:101800009C91119701968F73907011969C938E9373
:1018100030E0C9010895DC0191968C91919788235D
:1018200039F05496ED91FC915597808186FFF9CF60
:1018300091961C920895CF93DF93EC01EE85FF857E
:10184000E05CFF4F20813181E054F0402F5F3F4F3B
:101850002F733070DF01AE5BBF4F8D919C9111975C
:1018600028173907D1F3E05CFF4F80819181E05464
:10187000F040E80FF91F6083EE85FF85E05CFF4FC5
:1018800031832083EE89FF89208181E090E00F8CF5
:1018900002C0880F991F0A94E2F7282B208381E069
:1018A00089A3EC89FD8980818064808381E090E058
:1018B000DF91CF9108951092AA021092A90288EEAA
:1018C00093E0A0E0B0E08093AB029093AC02A093D1
:1018D000AD02B093AE0284E991E09093A8028093A8
:1018E000A7028FE192E09093B4028093B30283E663
:1018F00092E09093B6028093B50285EC90E09093CD
:10190000B8028093B70284EC90E09093BA0280937F
:10191000B90280EC90E09093BC028093BB0281EC12
:1019200090E09093BE028093BD0282EC90E0909391
:10193000C0028093BF0286EC90E09093C202809335
:10194000C10284E08093C30283E08093C40287E0F5
:101950008093C50285E08093C60281E08093C70230
:101960000895CF93DF930E94120E0E94030ACCEDDC
:10197000DAE00E9498062097E1F30E94DC0AF9CF92
:10198000CF92DF92EF92FF920F931F93CF93DF934B
:101990007C016B018A01C0E0D0E00FC0D6016D91DF
:1019A0006D01D701ED91FC910190F081E02DC7010F
:1019B0000995C80FD91F015010400115110571F785
:1019C000CE01DF91CF911F910F91FF90EF90DF90AB
:1019D000CF900895EF92FF920F931F938C01DC013B
:1019E000ED91FC910190F081E02D6DE009957C0175
:1019F000D801ED91FC910190F081E02DC8016AE0E1
:101A000009959C012E0D3F1DC9011F910F91FF905B
:101A1000EF900895CF93DF93EC016115710519F4F0
:101A200020E030E00FC0DB010D900020E9F71197B6
:101A3000A61BB70BE881F9810280F381E02DAD018F
:101A400009959C01C901DF91CF9108954F925F9252
:101A50007F928F929F92AF92BF92CF92DF92EF923E
:101A6000FF920F931F93DF93CF93CDB7DEB7A1976C
:101A70000FB6F894DEBF0FBECDBF2C01742ECB0184
:101A8000223008F42AE019A231E2C32ED12CCC0E68
:101A9000DD1E822E9924AA24BB24672D752FA50153
:101AA00094010E940B0F79018A01C801B701A501B9
:101AB00094010E94EC0E472D461B0894C108D108E2
:101AC0004A3014F4405D01C0495CF6014083E114E2
:101AD000F1040105110521F07E2C5F2DC801DDCF39
:101AE000C201B6010E940A0DA1960FB6F894DEBF9E
:101AF0000FBECDBFCF91DF911F910F91FF90EF905F
:101B0000DF90CF90BF90AF909F908F907F905F902D
:101B10004F900895DC012115310541F4ED91FC91C0
:101B20000190F081E02D642F099508950E94260D03
:101B30000895EF92FF920F931F937C010E948A0DEC
:101B40008C01C7010E94EA0C9C01200F311FC901C2
:101B50001F910F91FF90EF900895EF92FF920F93D6
:101B60001F937C010E940A0D8C01C7010E94EA0CA0
:101B7000080F191FC8011F910F91FF90EF90089552
:101B80001F920F920FB60F9211242F933F938F93B2
:101B90009F93AF93BF938091CD029091CE02A0917D
:101BA000CF02B091D0023091D1020196A11DB11D9A
:101BB000232F2D5F2D3720F02D570196A11DB11D2C
:101BC0002093D1028093CD029093CE02A093CF02B6
:101BD000B093D0028091C9029091CA02A091CB0229
:101BE000B091CC020196A11DB11D8093C9029093C2
:101BF000CA02A093CB02B093CC02BF91AF919F9148
:101C00008F913F912F910F900FBE0F901F901895BD
:101C1000019739F0880F991F880F991F0297019734
:101C2000F1F70895789484B5826084BD84B58160AD
:101C300084BD85B5826085BD85B5816085BDEEE6D4
:101C4000F0E0808181608083E1E8F0E010828081B3
:101C500082608083808181608083E0E8F0E0808121
:101C600081608083E1EBF0E0808184608083E0EB41
:101C7000F0E0808181608083EAE7F0E08081846029
:101C80008083808182608083808181608083808185
:101C9000806880831092C1000895CF93DF93482F0E
:101CA00050E0CA0186569F4FFC0134914A575F4F5E
:101CB000FA018491882369F190E0880F991FFC0153
:101CC000E859FF4FA591B491FC01EE58FF4FC59123
:101CD000D491662351F42FB7F8948C91932F90955B
:101CE00089238C93888189230BC0623061F42FB7DC
:101CF000F8948C91932F909589238C938881832BD2
:101D000088832FBF06C09FB7F8948C91832B8C9348
:101D10009FBFDF91CF910895833071F0843028F414
:101D20008130A1F0823021F514C08630B1F08730C7
:101D3000D1F08430E9F404C0809180008F7703C033
:101D4000809180008F7D80938000089584B58F7787
:101D500002C084B58F7D84BD08958091B0008F77D7
:101D60008093B00008958091B0008F7D8093B00083
:101D70000895FF920F931F93F62E482F50E0CA014B
:101D800082559F4FFC012491CA0186569F4FFC014A
:101D900014914A575F4FFA0104910023C9F022239E
:101DA00019F0822F0E948C0EE02FF0E0EE0FFF1F43
:101DB000EE58FF4FA591B4919FB7F894FF2021F4FE
:101DC0008C911095812302C08C91812B8C939FBFA5
:101DD0001F910F91FF900895629FD001739FF001B2
:101DE000829FE00DF11D649FE00DF11D929FF00DAB
:101DF000839FF00D749FF00D659FF00D9927729FE2
:101E0000B00DE11DF91F639FB00DE11DF91FBD016C
:101E1000CF0111240895A1E21A2EAA1BBB1BFD01BC
:101E20000DC0AA1FBB1FEE1FFF1FA217B307E407B9
:101E3000F50720F0A21BB30BE40BF50B661F771F11
:101E4000881F991F1A9469F76095709580959095F1
:101E50009B01AC01BD01CF010895EE0FFF1F05905E
:0A1E6000F491E02D0994F894FFCFEF
:101E6A00446174612072656365697665643A204FDE
:101E7A004B004572726F723A2052656365697665E6
:101E8A0072205048592068656164657220457272F3
:101E9A006F72004572726F723A2052656365697695
:101EAA006572204F76657272756E004461746120A6
:101EBA0073656E743A204F4B004572726F723A2006
:101ECA005472616E736D697420427566666572201C
:101EDA004572726F72004555493A20002E000A0079
:101EEA004465766963653A2000205665722E2000A3
:101EFA00000000001B0CC00CB10BE20BC20B0B0C58
:00000001FF
