:100000000C9462000C948A000C948A000C948A0070
:100010000C948A000C948A000C948A000C948A0038
:100020000C948A000C948A000C948A000C94720838
:100030000C948A000C948A000C948A000C948A0018
:100040000C94650F0C948A000C94C20A0C94100B4B
:100050000C948A000C948A000C948A000C948A00F8
:100060000C948A000C948A000000000024002700F1
:100070002A0000000000250028002B0000000000DE
:1000800023002600290004040404040404040202DA
:100090000202020203030303030301020408102007
:1000A0004080010204081020010204081020000012
:1000B0000007000201000003040600000000000029
:1000C00000007C0C11241FBECFEFD8E0DEBFCDBFF7
:1000D00011E0A0E0B1E0EAE8F6E202C005900D927E
:1000E000A23CB107D9F712E0A2ECB1E001C01D9229
:1000F000A53FB107E1F710E0C4ECD0E004C02297BF
:10010000FE010E943F13C23CD107C9F70E94D20CE6
:100110000C9443130C940000EF92FF920F93DF9323
:10012000CF93CDB7DEB760970FB6F894DEBF0FBEA2
:10013000CDBFA82F002309F461C07E010894E11C03
:10014000F11C88E0F70111928A95E9F729833A8337
:100150004B835C836D837E83AF83988780E2801BB3
:10016000E82FFF27E7FDF0954D815E816F8178854F
:10017000181684F01D861E861F86188A88279927E0
:100180008E1B9F0B04C076956795579547958A956A
:10019000D2F728C0202F332727FD3095DB01CA0175
:1001A000022E04C0B695A795979587950A94D2F725
:1001B0008D879E87AF87B88B04C0440F551F661F7D
:1001C000771FEA95D2F789819A81AB81BC8104C0FF
:1001D000B695A795979587952A95D2F7482B592BD1
:1001E0006A2B7B2B49875A876B877C8729853A85C1
:1001F0004B855C856D857E85AF8598898A2F609655
:100200000FB6F894DEBF0FBECDBFCF91DF910F9137
:10021000FF90EF900895EF92FF920F93DF93CF93AB
:10022000CDB7DEB760970FB6F894DEBF0FBECDBF77
:10023000A82F002309F461C07E010894E11CF11C81
:1002400088E0F70111928A95E9F729833A834B8375
:100250005C836D837E83AF83988780E2801BE82F69
:10026000FF27E7FDF09549815A816B817C81181643
:1002700084F019861A861B861C86882799278E1B70
:100280009F0B04C0440F551F661F771F8A95D2F736
:1002900028C0202F332727FD3095DB01CA01022E0D
:1002A00004C0880F991FAA1FBB1F0A94D2F7898721
:1002B0009A87AB87BC8704C0769567955795479515
:1002C000EA95D2F78D819E81AF81B88504C0880FF1
:1002D000991FAA1FBB1F2A95D2F7482B592B6A2BAF
:1002E0007B2B4D875E876F87788B29853A854B8579
:1002F0005C856D857E85AF8598898A2F60960FB65F
:10030000F894DEBF0FBECDBFCF91DF910F91FF906C
:10031000EF9008951F93CF93DF93182FEB01603870
:100320007105C8F48AE060E00E94AA10812F90E075
:10033000805C9F4F8EBD0DB407FEFDCF8EB5CF778D
:10034000D070CEBD0DB407FEFDCF8EB51EBC0DB472
:1003500007FEFDCF2FC0CB018058904080589F47AB
:1003600010F010E02CC08AE060E00E94AA10812FFB
:1003700090E0805C9F4F8EBD0DB407FEFDCF8EB523
:10038000CE018F77907080589F4F8EBD0DB407FEC1
:10039000FDCF8EB5C078DF77CC0FCD2FCC1FDD0B16
:1003A000D195CEBD0DB407FEFDCF8EB51EBC0DB4EC
:1003B00007FEFDCF1EB58AE061E00E94AA10812FE2
:1003C000DF91CF911F910895AF92BF92CF92DF92AC
:1003D000EF92FF920F931F93CF93DF93EE24FF24AE
:1003E00010E0B0E0A0E0F0E0E0E0DD24C4E0D0E028
:1003F0009701412F5B2F6A2F7F2F8E2F9D2D08E0B5
:100400000E940B01122F032FF42EE52ED62EC72E9D
:10041000B82EA92E86E0BE010E948A01212F280F46
:1004200031E0211708F030E0300F41E0301708F0DC
:1004300040E04F0D51E04F1508F050E05E0D61E0D7
:100440005E1508F060E06D0D71E06D1508F070E06C
:100450007C0D81E07C1508F080E08B0D91E08B1520
:1004600008F090E0092F0A0D7901142FB52FA62F5F
:10047000F72FE82FD02E21979FEFCF3FD90709F014
:10048000B7CF902FDF91CF911F910F91FF90EF90F9
:10049000DF90CF90BF90AF900895EF92FF920F93AF
:1004A0001F93082F83E0602F70E00E948A01E82EDE
:1004B000FF2410E00F5F1F4F83E0B8010E948A0104
:1004C000382F20E02E0D3F1DC9011F910F91FF9085
:1004D000EF9008950F931F93CF93DF93182FEB01A5
:1004E000042F60387105C8F48AE060E00E94AA1009
:1004F000812F90E080549F4F8EBD0DB407FEFDCF3D
:100500008EB5CF77D070CEBD0DB407FEFDCF8EB5C2
:100510000EBD0DB407FEFDCF2DC0CB01805890401D
:1005200080589F4760F58AE060E00E94AA10812F02
:1005300090E080549F4F8EBD0DB407FEFDCF8EB569
:10054000CE018F77907080589F4F8EBD0DB407FEFF
:10055000FDCF8EB5C078DF77CC0FCD2FCC1FDD0B54
:10056000D195CEBD0DB407FEFDCF8EB50EBD0DB439
:1005700007FEFDCF8EB58AE061E00E94AA10DF91F0
:10058000CF911F910F9108954F925F926F927F923A
:100590008F929F92AF92BF92CF92DF92EF92FF9293
:1005A0000F931F93DF93CF93CDB7DEB7CF57D040D4
:1005B0000FB6F894DEBF0FBECDBF4C01A62E772E2E
:1005C000F42E6E2C81E0898388E88A831B829AEC62
:1005D0009C838EED8D832E831F83988789870A875E
:1005E0001B8700E010E06E010894C11CD11CF601CD
:1005F000E00FF11F89E0B80140810E946A020F5F9D
:100600001F4F0A30110599F73BE0B32EBF0C8BE06A
:10061000B816C9F08A2D972D9C0169010BE010E0F6
:10062000EB2CFF24EAE0F0E0EE0EFF1E09C089E0AB
:10063000B801F60141916F010E946A020F5F1F4FDE
:10064000E016F106A4F7F2E0BF0E88E060E070E08B
:100650004B2D0E946A02662031F48DE060E070E06C
:1006600042E00E946A028FE060E070E00E948A012E
:1006700087FD0DC08FE063E070E00E948A0184FF77
:10068000F2CF8AEC92E060E071E00E94520F8FE0BE
:1006900060E070E04EEF0E946A028DE060E070E082
:1006A00040E40E946A02552466247724AA24BB24CD
:1006B000CC24DD2400E024E0E22EF12C87E1B70118
:1006C0000E948A01182F252D362D472D5A2D6B2D6E
:1006D0007C2D8D2D902F08E00E940B01092FB22F49
:1006E000B10FE1E0B21708F0E0E0AE2FA30F21E078
:1006F000A31708F020E0122F140F21E0141708F0C0
:1007000020E0422E450E21E0451608F020E0422F61
:10071000460F21E0461708F020E0322F370F21E086
:10072000371708F020E0280F91E0281708F090E034
:10073000900F5B2E6A2E712EA42CB42EC32ED22EB7
:10074000092F0894E108F1088FEFE8168FEFF806FB
:1007500009F0B4CFF401B183A283138344824583AB
:10076000368327839087C401C158DF4F0FB6F894B2
:10077000DEBF0FBECDBFCF91DF911F910F91FF90D4
:10078000EF90DF90CF90BF90AF909F908F907F9031
:100790006F905F904F90089586E360E070E041E0D5
:1007A0000E946A028DE267E070E040E80E946A02FF
:1007B00088EC90E00E94F90F86E360E070E040E092
:1007C0000E946A0208953F924F925F926F927F92C9
:1007D0008F929F92AF92BF92CF92DF92EF92FF9251
:1007E0000F931F93CF93DF937C016B018DE060E04B
:1007F00070E040E40E946A028DE061E070E041E058
:100800000E946A0221C084FF05C08AEC92E06DE17B
:1008100071E017C08FE062E070E00E948A0184FFFF
:1008200005C08AEC92E06EE371E00BC08FE062E0FD
:1008300070E00E948A0185FF07C08AEC92E066E5BD
:1008400071E00E94520F07C08FE061E070E00E94EB
:100850008A0185FFD8CF8DE060E070E040E40E941F
:100860006A0280E160E070E00E948A014FE7342E66
:10087000382229F000E010E0C32DD0E015C0552447
:10088000662477248824BB24CC24DD2400E0C4E043
:10089000D0E00EC081E1B8010E948A01F601E00FAC
:1008A000F11F80830F5F1F4F0C171D079CF3E7CFCD
:1008B00085E1BE010E948A01182F252D362D472D76
:1008C000582D6B2D7C2D8D2D902F08E00E940B0153
:1008D000A22EA32FB42F052FD62EC72EB82E892EC9
:1008E00030E040E050E060E070E080E090E0A10E99
:1008F000F1E0A11608F0F0E0E1E0A31708F0E0E075
:100900004F2E4A0EF1E04A1608F0F0E0EF2BF1E02E
:10091000B41708F0F0E09E2E9B0EE1E09B1608F065
:10092000E0E0FE2BE1E0051708F0E0E01F2F100FDC
:10093000F1E0101708F0F0E0EF2BF1E0D61608F028
:10094000F0E0BE2FBD0DE1E0BD1508F0E0E0FE2BAC
:10095000E1E0C71608F0E0E0AF2FAC0DF1E0AC1518
:1009600008F0F0E0EF2BF1E0B81608F0F0E04E2FC1
:100970004B0D31E04B1508F030E08F2F832B880DA5
:100980005A2C642C792C812EBB2ECA2ED42E082FE3
:1009900021979FEFCF3FD90709F08ACFF701A182B6
:1009A000428293821483B583A683478380873082F3
:1009B000C701DF91CF911F910F91FF90EF90DF90D2
:1009C000CF90BF90AF909F908F907F906F905F90EF
:1009D0004F903F900895EF92FF920F931F93CF9304
:1009E000DF937C018B018DE060E070E040E40E94C9
:1009F0006A02C0E0D0E009C0F701EC0FFD1F89E0FA
:100A0000BE0140810E946A022196C017D107A4F35B
:100A1000402F4E5F88E060E070E00E946A028DE047
:100A200060E070E042E00E946A0215C08FE060E082
:100A300070E04EEF0E946A0216C08FE063E070E043
:100A40000E948A0184FF07C08AEC92E060E071E0B6
:100A50000E94520F08C08FE060E070E00E948A019F
:100A600088235CF7E3CF8DE060E070E040E40E9413
:100A70006A02DF91CF911F910F91FF90EF9008953F
:100A80004F925F926F927F928F929F92AF92BF929E
:100A9000CF92DF92EF92FF920F931F93DF93CF934A
:100AA000CDB7DEB7CF57D0400FB6F894DEBF0FBE3C
:100AB000CDBF7C0181E0898388E88A831B829AEC20
:100AC0009C838EED8D832E831F83988789870A8769
:100AD0001B87442371F0DB01FE013C96642F70E01C
:100AE000655F7F4FAE014F5F5F4F9A01260F371F43
:100AF00007C0CE0101966BE070E006C08D91819336
:100B0000E217F307D9F7CA010E94EB0455246624C3
:100B1000772488249924AA24BB2400E054E0C52E1D
:100B2000D12C87E1B6010E948A01182F252D362D80
:100B3000472D582D692D7A2D8B2D902F08E00E947E
:100B40000B01092FB22FB10FE1E0B21708F0E0E07E
:100B5000AE2FA30F21E0A31708F020E0122F140FEF
:100B600021E0141708F020E0422E450E21E0451642
:100B700008F020E0422F460F21E0461708F020E061
:100B8000322F370F21E0371708F020E0280F91E0CF
:100B9000281708F090E0900F5B2E6A2E712E842C9F
:100BA000942EA32EB22E092F0894C108D1088FEFDE
:100BB000C8168FEFD80609F0B4CFF701B183A2832E
:100BC000138344824583368327839087C701C158A6
:100BD000DF4F0FB6F894DEBF0FBECDBFCF91DF91D0
:100BE0001F910F91FF90EF90DF90CF90BF90AF904B
:100BF0009F908F907F906F905F904F900895EF92AD
:100C0000FF920F931F93082F7B01AB01507083E07D
:100C1000602F70E00E946A0210E00F5F1F4F83E0B8
:100C2000B8014F2D0E946A021F910F91FF90EF9023
:100C300008959F92AF92BF92CF92DF92EF92FF9270
:100C40000F931F93DF93CF93CDB7DEB728970FB6DF
:100C5000F894DEBF0FBECDBFA22F2983F32F3A83B6
:100C6000E42F4B835C836D837E838F839887EF2E85
:100C7000AE2EFA2E952ED62EB72EC82E83E26CE01D
:100C800070E047E00E946A0283E26DE070E049EAAA
:100C90000E946A0283E26EE070E042E00E946A0213
:100CA00083E26FE070E045E20E946A0281E0E816AC
:100CB00059F48EE266E078E147E00E946A028EE233
:100CC00067E078E146E10DC082E0E81661F48EE26B
:100CD00066E078E147E00E946A028EE267E078E130
:100CE00046E00E946A0288E26CE070E040EE0E94FA
:100CF0006A0288E26DE070E04FE30E946A0288E2D7
:100D00006EE070E04EE10E946A0288E26FE070E0FF
:100D100040E00E946A028AE26BE070E040EC0E94D0
:100D20006A028BE26BE070E04EEB0E946A024A2D91
:100D30004E0D88E062E070E00E946A0288E061E0A7
:100D400070E04F2D0E946A02FF2029F484E062E0E7
:100D500070E044E404C084E062E070E044E00E949B
:100D60006A0281E0E81679F58EE160E070E048E41F
:100D70000E946A028EE161E070E048E20E946A022D
:100D80008EE162E070E048E00E946A028EE163E07A
:100D900070E04EE00E946A0283E264E070E040E7A7
:100DA0000E946A0283E265E070E048E80E946A02FD
:100DB00087E264E070E047E80E946A0287E265E04B
:100DC00070E040E01CC000E010E08EE1B80145E8B2
:100DD0000E946A020F5F1F4F04301105B1F783E2D2
:100DE00064E070E04BE90E946A0283E265E070E033
:100DF00048E80E946A0287E264E070E04DE80E94E1
:100E00006A029920D1F080E4F81629F487E262E0C2
:100E100070E042E00EC080E2F81629F487E262E05A
:100E200070E046E006C0FF2031F487E262E070E047
:100E300046E10E946A0292E314C080E4F81619F0B9
:100E400080E2F81629F487E262E070E041E006C033
:100E5000FF2031F487E262E070E04AE00E946A021B
:100E600090E04D2D4295440F440F407C8E2D880F0D
:100E7000880F480F490F8FE162E070E00E946A021C
:100E8000BB0CBB0CBB0C8CE1D822D694D694DB0CEB
:100E90008FE163E070E04D2D0E946A0280E4A816A5
:100EA00029F487E266E070E044E606C0A7FE0CC0C5
:100EB00087E266E070E040E20E946A0287E267E053
:100EC00070E040E00E946A0288E0C816B9F487E248
:100ED0006BE070E041E30E946A0281E0E81629F4C9
:100EE00087E268E070E04DE239C082E0E81609F080
:100EF0007CC087E268E070E04BE619C080E1C8166C
:100F0000E9F487E26BE070E043E30E946A0281E06B
:100F1000E81629F487E268E070E042E51FC082E04D
:100F2000E81609F062C087E268E070E04EEB0E94CC
:100F30006A0287E269E070E040E04FC080E2C816D4
:100F400011F587E26BE070E045E30E946A0281E000
:100F5000E81659F487E268E070E04AE90E946A0204
:100F600087E269E070E040E024C082E0E816E9F53D
:100F700087E268E070E04EE50E946A0287E269E07D
:100F800070E041E02AC080E4C81679F587E26BE0A2
:100F900070E047E30E946A0281E0E81689F487E284
:100FA00068E070E04DE10E946A0287E269E070E06B
:100FB00041E00E946A0287E26AE070E04AE113C001
:100FC00082E0E81691F487E268E070E046E90E946A
:100FD0006A0287E269E070E042E00E946A0287E20A
:100FE0006AE070E04BE30E946A0284E0A81659F4BC
:100FF00087E266E270E040E10E946A0287E267E20F
:1010000070E040E00AC088E0A81619F084E1A81654
:1010100031F487E266E270E048E20E946A0287E209
:1010200067E270E040E00E946A0228960FB6F894EA
:10103000DEBF0FBECDBFCF91DF911F910F91FF900B
:10104000EF90DF90CF90BF90AF909F900895CF9298
:10105000DF92EF92FF920F931F9380E063E070E0C6
:101060000E948A01E82E80E062E070E00E948A011E
:10107000F82E80E061E070E00E948A01D82E80E0C6
:1010800060E070E00E948A01C82E0AEC12E0C801FC
:101090006BE771E00E94580E7E2D60E06F0D711DB0
:1010A000C80140E150E00E94BA0DC80164E871E057
:1010B0000E94580EC8016D2D40E150E00E94E80DDD
:1010C000C80167E771E00E94580EC8016C2D40E12D
:1010D00050E00E94FA0D1F910F91FF90EF90DF906A
:1010E000CF9008951F920F920FB60F9211242F9355
:1010F0003F934F935F936F937F938F939F93AF93A0
:10110000BF93EF93FF9380914102882341F488E0DD
:1011100061E00E94AA1081E08093410206C088E04D
:1011200060E00E94AA1010924102FF91EF91BF91DE
:10113000AF919F918F917F916F915F914F913F916F
:101140002F910F900FBE0F901F9018952F923F92E6
:101150004F925F926F927F928F929F92AF92BF92C7
:10116000CF92DF92EF92FF920F931F93DF93CF9373
:10117000CDB7DEB7A6970FB6F894DEBF0FBECDBFD2
:101180008091B001882341F068EE73E080E090E048
:101190000E94D30F1092B001CE01019662EC71E073
:1011A00040E02AE030E00BE010E00E944005CE0174
:1011B0000B9662EC71E00E94E3030E94E401A92F08
:1011C000922F94599EA3F1E0921708F0F0E0232F9C
:1011D0002850E1E0231708F0E0E0F20FFD8B31E04A
:1011E000F21708F030E0E32B242F225FF1E0241700
:1011F00008F0F0E0E20FEE8B31E0E21708F030E0AB
:10120000F32B252F245F41E0251708F040E0F20F73
:10121000FF8B31E0F21708F030E0432BE42FE60FAC
:10122000E88F21E0E61708F020E0270F298F21E062
:10123000F98DF71708F020E0280F2A8F91E0281782
:1012400008F090E09A0F9B8F2A812E8F8B818F8FD1
:101250009C8198A3ED81E9A3FE81FAA32F812BA3A2
:1012600088858CA399859DA36C847D848E849F84BE
:10127000A888B988CA88DB881EA1ED89EC8FFE8911
:10128000FD8F2F88388C498C5A8C0B8DEE24FF24CF
:101290008AE0B701412F0E946A02212F3C8D4D8DBB
:1012A000522D632D742D852D902F08E00E948C0007
:1012B000122F3C8F4D8F252E362E472E582E092F5C
:1012C0000894E11CF11C25E0E216F10409F782EC18
:1012D000E82E81E0F82E2E8D3F8D48A159A16AA1FC
:1012E0007BA18CA19DA1F70121937F0108E00E94C1
:1012F0008C00FAECEF16F1E0FF06A9F79301A401C8
:10130000B501C601F70121937F0108E00E948C001E
:10131000F2EDEF16F1E0FF06A9F72EA13D894E8907
:101320005F89688D798D8A8D9B8DF70121937F016F
:1013300008E00E948C00FAEDEF16F1E0FF06A9F735
:101340008DE060E070E046E00E946A0288EE9FEF68
:10135000E80EF91ECE010196B70148E12AE030E01F
:101360000BE010E0EE24E3940E94C4026A817B81CA
:101370008C819D8166197709880999090E94DF117E
:1013800025E338E443E857E30E949512AB01BC0122
:101390008AEC92E022E030E00E943F0F62E370E0CE
:1013A00080E090E00E94D30FA6960FB6F894DEBFBF
:1013B0000FBECDBFCF91DF911F910F91FF90EF90A6
:1013C000DF90CF90BF90AF909F908F907F906F9065
:1013D0005F904F903F902F9008950F931F93DF934E
:1013E000CF93CDB7DEB728970FB6F894DEBF0FBE08
:1013F000CDBF0AEC12E0C80140E855E260E070E0C1
:101400000E944B0B88E061E00E943E108CE060E09F
:101410000E943E108AE061E00E943E108BE061E095
:101420000E943E108DE061E00E943E108AE061E083
:101430000E94AA1080E00E94940A85E00E94990A06
:1014400081E00E948B0A0E94AA0A0E94CC030E949B
:101450002708198291E09A8388E08B839C8383E03C
:101460008E838D8380E48F8320E031E048E051E07B
:1014700063E073E098850E94190680E06BE070E0FD
:101480000E94FF0582E06AEC7EED0E94FF05C80124
:101490006BE871E00E94580E80E00E944D02BC0192
:1014A000C80140E150E00E94CB0D8DE060E070E0AB
:1014B00040E40E946A0284E060E070E049E00E943B
:1014C0006A02F89410928000E1E8F0E01082109235
:1014D00085001092840089E09DE3909389008093B9
:1014E000880080818860808380818460808380819F
:1014F00081608083EFE6F0E0808182608083789471
:1015000028960FB6F894DEBF0FBECDBFCF91DF9106
:101510001F910F910895882319F48CB5806202C041
:101520008CB58F7D8CBD08959CB5937F982B9CBD09
:1015300008952CB5382F33702C7F322B3CBD2DB540
:1015400090E0959587959595879581702E7F822B54
:101550008DBD08958AE061E00E94AA108AE061E0F2
:101560000E943E108CB580618CBD8CB580648CBDB2
:101570008DE061E00E943E108BE061E00E943E1031
:10158000089508951F920F920FB60F9211242F9372
:101590003F934F938F939F93EF93FF938091C0005E
:1015A00082FD1DC04091C6002091820230918302CD
:1015B0002F5F3F4F2F73307080918402909185028E
:1015C0002817390771F0E0918202F0918302EE5BF7
:1015D000FD4F4083309383022093820202C08091AA
:1015E000C600FF91EF919F918F914F913F912F9165
:1015F0000F900FBE0F901F901895E091D602F091BA
:10160000D702E05CFF4F8191919120813181821B53
:10161000930B8F739070892B11F00E94C10A08956B
:101620001F920F920FB60F9211242F933F938F9317
:101630009F93EF93FF932091C6023091C702809150
:10164000C8029091C9022817390731F48091C1006E
:101650008F7D8093C10014C0E091C802F091C9024F
:10166000EA57FD4F20818091C8029091C9020196EE
:101670008F7390709093C9028093C8022093C60024
:10168000FF91EF919F918F913F912F910F900FBEFE
:101690000F901F901895AF92BF92DF92EF92FF923A
:1016A0000F931F93CF93DF93EC017A018B01DD241D
:1016B000403081EE580780E0680780E0780711F03D
:1016C000DD24D39491E0A92EB12CEC89FD89DD2095
:1016D00069F0C50108A002C0880F991F0A94E2F7BB
:1016E000808360E079E08DE390E005C0108260E8DF
:1016F00074E88EE190E0A80197010E941B1321502D
:10170000304040405040569547953795279580E1A9
:101710002030380720F0DD2011F0DD24D6CFE88915
:10172000F9893083EA89FB89208319A2EE89FF8930
:10173000408121E030E0C9010C8C02C0880F991F64
:101740000A94E2F7482B4083EE89FF894081C90162
:101750000D8C02C0880F991F0A94E2F7482B408332
:10176000EE89FF894081C9010E8C02C0880F991F44
:101770000A94E2F7482B4083EE89FF8980810F8C21
:1017800002C0220F331F0A94E2F7209528232083FA
:10179000DF91CF911F910F91FF90EF90DF90BF905D
:1017A000AF900895DC011C96ED91FC911D97E05CD3
:1017B000FF4F2191319180819181281B390B2F732B
:1017C0003070C9010895DC011C96ED91FC911D97C4
:1017D000E05CFF4F20813181E054F040DF01AE5BDF
:1017E000BF4F8D919C9111972817390719F42FEF4E
:1017F0003FEF07C08D919C91E80FF91F8081282F42
:1018000030E0C9010895DC011C96ED91FC911D9713
:10181000E05CFF4F20813181E054F040DF01AE5B9E
:10182000BF4F8D919C9111972817390719F42FEF0D
:101830003FEF10C08D919C911197E80FF91F208107
:101840008D919C91119701968F73907011969C9336
:101850008E9330E0C9010895DC0191968C919197A7
:10186000882339F05496ED91FC915597808186FF3D
:10187000F9CF91961C920895CF93DF93EC01EE85FA
:10188000FF85E05CFF4F20813181E054F0402F5F05
:101890003F4F2F733070DF01AE5BBF4F8D919C9136
:1018A000119728173907D1F3E05CFF4F80819181B0
:1018B000E054F040E80FF91F6083EE85FF85E05C9F
:1018C000FF4F31832083EE89FF89208181E090E002
:1018D0000F8C02C0880F991F0A94E2F7282B2083EF
:1018E00081E089A3EC89FD8980818064808381E027
:1018F00090E0DF91CF9108951092CD021092CC022A
:1019000088EE93E0A0E0B0E08093CE029093CF0207
:10191000A093D002B093D10285EB91E09093CB02DB
:101920008093CA0282E492E09093D7028093D60219
:1019300086E892E09093D9028093D80285EC90E0FB
:101940009093DB028093DA0284EC90E09093DD02C6
:101950008093DC0280EC90E09093DF028093DE02C3
:1019600081EC90E09093E1028093E00282EC90E0C1
:101970009093E3028093E20286EC90E09093E5027C
:101980008093E40284E08093E60283E08093E702A0
:1019900087E08093E80285E08093E90281E080930C
:1019A000EA020895CF93DF930E9403100E94ED098D
:1019B000CDEFDAE00E94A6082097E1F30E94FD0A2D
:1019C000F9CFCF92DF92EF92FF920F931F93CF93B5
:1019D000DF937C016B018A01C0E0D0E00FC0D6012B
:1019E0006D916D01D701ED91FC910190F081E02D99
:1019F000C7010995C80FD91F0150104001151105E5
:101A000071F7CE01DF91CF911F910F91FF90EF9071
:101A1000DF90CF900895EF92FF920F931F938C0168
:101A2000DC01ED91FC910190F081E02D6DE00995D4
:101A30007C01D801ED91FC910190F081E02DC8016D
:101A40006AE009959C012E0D3F1DC9011F910F9160
:101A5000FF90EF900895CF93DF93EC01611571052E
:101A600019F420E030E00FC0DB010D900020E9F711
:101A70001197A61BB70BE881F9810280F381E02D55
:101A8000AD0109959C01C901DF91CF9108954F9255
:101A90005F927F928F929F92AF92BF92CF92DF928E
:101AA000EF92FF920F931F93DF93CF93CDB7DEB7E3
:101AB000A1970FB6F894DEBF0FBECDBF2C01742ED8
:101AC000CB01223008F42AE019A231E2C32ED12C36
:101AD000CC0EDD1E822E9924AA24BB24672D752FDF
:101AE000A50194010E941B1379018A01C801B70165
:101AF000A50194010E94FC12472D461B0894C108C1
:101B0000D1084A3014F4405D01C0495CF6014083BD
:101B1000E114F1040105110521F07E2C5F2DC801AF
:101B2000DDCFC201B6010E942B0DA1960FB6F8942D
:101B3000DEBF0FBECDBFCF91DF911F910F91FF9000
:101B4000EF90DF90CF90BF90AF909F908F907F905D
:101B50005F904F900895DC012115310541F4ED911E
:101B6000FC910190F081E02D642F099508950E9469
:101B7000470D0895EF92FF920F931F939A017B01F7
:101B800000E010E0B801A7010E94AB0D1F910F917A
:101B9000FF90EF900895CF92DF92EF92FF920F9314
:101BA0001F936C017B019A0100E010E0B801A701CE
:101BB0000E94AB0D8C01C6010E940B0D080F191F6E
:101BC000C8011F910F91FF90EF90DF90CF90089583
:101BD000EF92FF920F931F939A01E62EFF2400E0ED
:101BE00010E0B801A7010E94AB0D1F910F91FF906B
:101BF000EF900895CF92DF92EF92FF920F931F9391
:101C00006C01E62E9A01FF2400E010E0B801A70164
:101C10000E94AB0D8C01C6010E940B0D080F191F0D
:101C2000C8011F910F91FF90EF90DF90CF90089522
:101C3000CF92DF92EF92FF920F931F93CF93DF9398
:101C4000EC016A017B012115310541F4E881F9813C
:101C50000190F081E02D642F09951FC02A303105D5
:101C6000D1F477FF17C0E881F9810190F081E02D70
:101C70006DE209958C0144275527BA014C195D097D
:101C80006E097F09CE012AE00E94470D9801280FB6
:101C9000391F04C02AE00E94470D9C01C901DF9151
:101CA000CF911F910F91FF90EF90DF90CF9008950B
:101CB0000E942B0D08957F928F929F92AF92BF92B8
:101CC000CF92DF92EF92FF920F931F93CF93DF9308
:101CD0004C017A018B01722ECB01BA01A801970148
:101CE0000E94F812882321F0C40162EA71E021C049
:101CF000C0E0D0E057016801E894D7F8C601B5010B
:101D00002FEF3FEF4FE75FE70E94F812882351F46F
:101D1000C601B5012FEF3FEF4FE75FE70E94421189
:101D2000181614F0C1E0D0E0219739F0C40166EA3A
:101D300071E00E942B0DEC0193C0C801B7012FEF99
:101D40003FEF4FE75FE40E949112181654F0C8016C
:101D5000B7012FEF3FEF4FE75FEC0E94421188235E
:101D600024F4C4016AEA71E0E4CFC801B70120E0BD
:101D700030E040E050E00E94421187FD03C0C0E027
:101D8000D0E00EC0D401ED91FC910190F081E02DE6
:101D9000C4016DE20995EC0117FB109517F9109538
:101DA00020E030E040E05FE3DD240BC0CA01B90170
:101DB00020E030E040E251E40E9446119B01AC017A
:101DC000D394D71498F3C801B7010E94DE105B01C9
:101DD0006C010E94B3117B018C01C401B801A70101
:101DE0002AE030E00E94AB0DC80FD91F772039F0F0
:101DF000C4016EEA71E00E942B0DC80FD91FC80103
:101E0000B7010E94DF119B01AC01C601B5010E9420
:101E1000DD1024C020E030E040E251E40E94951241
:101E20007B018C010E94AE115B016C01CC24B7FCDC
:101E3000C094DC2CC401B601A5012AE030E00E9468
:101E4000180EC80FD91FC601B5010E94E1119B01F0
:101E5000AC01C801B7010E94DD107A947720D1F659
:101E6000CE01DF91CF911F910F91FF90EF90DF9006
:101E7000CF90BF90AF909F908F907F900895EF92FA
:101E8000FF920F931F937C010E945B0E8C01C70190
:101E90000E940B0D080F191FC8011F910F91FF9091
:101EA000EF900895EF92FF920F931F937C010E9491
:101EB0002B0D8C01C7010E940B0D080F191FC801C3
:101EC0001F910F91FF90EF9008951F920F920FB600
:101ED0000F9211242F933F938F939F93AF93BF93B0
:101EE0008091F0029091F102A091F202B091F30280
:101EF0003091F4020196A11DB11D232F2D5F2D37C6
:101F000020F02D570196A11DB11D2093F40280935E
:101F1000F0029093F102A093F202B093F302809149
:101F2000EC029091ED02A091EE02B091EF020196C9
:101F3000A11DB11D8093EC029093ED02A093EE02DF
:101F4000B093EF02BF91AF919F918F913F912F91ED
:101F50000F900FBE0F901F9018959FB7F894209187
:101F6000EC023091ED024091EE025091EF0286B505
:101F7000A89B06C08F3F21F02F5F3F4F4F4F5F4F11
:101F80009FBF542F432F322F2227280F311D411D71
:101F9000511D82E0220F331F441F551F8A95D1F730
:101FA000B901CA010895EF92FF920F931F93CF9347
:101FB000DF937B018C010E94AD0FEB010EC00E94EC
:101FC000AD0F6C1B7D0B685E7340C8F30894E1088D
:101FD000F10801091109C851DC4FE114F1040105B0
:101FE000110569F7DF91CF911F910F91FF90EF904D
:101FF0000895019739F0880F991F880F991F02974C
:102000000197F1F70895789484B5826084BD84B512
:10201000816084BD85B5826085BD85B5816085BDE3
:10202000EEE6F0E0808181608083E1E8F0E01082FC
:10203000808182608083808181608083E0E8F0E03D
:10204000808181608083E1EBF0E080818460808327
:10205000E0EBF0E0808181608083EAE7F0E080815E
:1020600084608083808182608083808181608083BE
:102070008081806880831092C1000895CF93DF93A0
:10208000482F50E0CA0186569F4FFC0134914A57B1
:102090005F4FFA018491882369F190E0880F991FBE
:1020A000FC01E859FF4FA591B491FC01EE58FF4F98
:1020B000C591D491662351F42FB7F8948C91932F46
:1020C000909589238C93888189230BC0623061F4B9
:1020D0002FB7F8948C91932F909589238C938881B6
:1020E000832B88832FBF06C09FB7F8948C91832BD6
:1020F0008C939FBFDF91CF910895833071F084302E
:1021000028F48130A1F0823021F514C08630B1F07E
:102110008730D1F08430E9F404C0809180008F775B
:1021200003C0809180008F7D80938000089584B5E6
:102130008F7702C084B58F7D84BD08958091B000F3
:102140008F778093B00008958091B0008F7D809349
:10215000B0000895FF920F931F93F62E482F50E082
:10216000CA0182559F4FFC012491CA0186569F4F98
:10217000FC0114914A575F4FFA0104910023C9F002
:10218000222319F0822F0E947D10E02FF0E0EE0F45
:10219000FF1FEE58FF4FA591B4919FB7F894FF2011
:1021A00021F48C911095812302C08C91812B8C930A
:1021B0009FBF1F910F91FF9008955058BB27AA27EA
:1021C0000ED075C166D130F06BD120F031F49F3F55
:1021D00011F41EF45BC10EF4E095E7FB51C1E92F49
:1021E00077D180F3BA17620773078407950718F051
:1021F00071F49EF58FC10EF4E0950B2EBA2FA02D31
:102200000B01B90190010C01CA01A0011124FF27A3
:10221000591B99F0593F50F4503E68F11A16F0409E
:10222000A22F232F342F4427585FF3CF469537959D
:102230002795A795F0405395C9F77EF41F16BA0B62
:10224000620B730B840BBAF09150A1F0FF0FBB1F10
:10225000661F771F881FC2F70EC0BA0F621F731F59
:10226000841F48F4879577956795B795F7959E3FB6
:1022700008F0B3CF9395880F08F09927EE0F979544
:1022800087950895D9D008F481E008950CD00FC146
:1022900007D140F0FED030F021F45F3F19F0F0C0DC
:1022A000511139C1F3C014D198F39923C9F35523BF
:1022B000B1F3951B550BBB27AA2762177307840739
:1022C00038F09F5F5F4F220F331F441FAA1FA9F3EF
:1022D00033D00E2E3AF0E0E830D091505040E695E1
:1022E000001CCAF729D0FE2F27D0660F771F881F42
:1022F000BB1F261737074807AB07B0E809F0BB0B31
:10230000802DBF01FF2793585F4F2AF09E3F510554
:1023100068F0B6C000C15F3FECF3983EDCF38695F1
:1023200077956795B795F7959F5FC9F7880F911DCA
:102330009695879597F90895E1E0660F771F881FB6
:10234000BB1F621773078407BA0720F0621B730B69
:10235000840BBA0BEE1F88F7E095089504D06894BB
:10236000B111D9C00895BCD088F09F5790F0B92F13
:102370009927B751A0F0D1F0660F771F881F991FDA
:102380001AF0BA95C9F712C0B13081F0C3D0B1E0EC
:102390000895C0C0672F782F8827B85F39F0B93FFC
:1023A000CCF3869577956795B395D9F73EF49095DC
:1023B0008095709561957F4F8F4F9F4F0895E8945A
:1023C00009C097FB3EF490958095709561957F4F7D
:1023D0008F4F9F4F9923A9F0F92F96E9BB2793952B
:1023E000F695879577956795B795F111F8CFFAF43B
:1023F000BB0F11F460FF1BC06F5F7F4F8F4F9F4F6C
:1024000016C0882311F096E911C0772321F09EE8C9
:10241000872F762F05C0662371F096E8862F70E02F
:1024200060E02AF09A95660F771F881FDAF7880F09
:102430009695879597F90895990F0008550FAA0B5F
:10244000E0E8FEEF16161706E807F907C0F01216C7
:102450001306E407F50798F0621B730B840B950BCA
:1024600039F40A2661F0232B242B252B21F408951F
:102470000A2609F4A140A6958FEF811D811D0895BC
:1024800097F99F6780E870E060E008959FEF80EC27
:10249000089500240A9416161706180609060895CA
:1024A00000240A9412161306140605060895092E30
:1024B0000394000C11F4882352F0BB0F40F4BF2B9F
:1024C00011F460FF04C06F5F7F4F8F4F9F4F0895DF
:1024D00057FD9058440F551F59F05F3F71F04795D5
:1024E000880F97FB991F61F09F3F79F087950895BA
:1024F000121613061406551FF2CF4695F1DF08C0D9
:10250000161617061806991FF1CF869571056105F5
:1025100008940895E894BB2766277727CB0197F99D
:1025200008958ADF08F48FEF08950BD0C0CFB1DF94
:1025300028F0B6DF18F0952309F0A2CFA7CF112419
:10254000EACFC6DFA0F3959FD1F3950F50E0551F5A
:10255000629FF001729FBB27F00DB11D639FAA27F8
:10256000F00DB11DAA1F649F6627B00DA11D661F47
:10257000829F2227B00DA11D621F739FB00DA11D68
:10258000621F839FA00D611D221F749F3327A00D22
:10259000611D231F849F600D211D822F762F6A2FBE
:1025A00011249F5750408AF0E1F088234AF0EE0F43
:1025B000FF1FBB1F661F771F881F91505040A9F750
:1025C0009E3F510570F05CCFA6CF5F3FECF3983E85
:1025D000DCF3869577956795B795F795E7959F5FB7
:1025E000C1F7FE2B880F911D9695879597F9089551
:1025F00023DF880B990B0895629FD001739FF00130
:10260000829FE00DF11D649FE00DF11D929FF00D82
:10261000839FF00D749FF00D659FF00D9927729FB9
:10262000B00DE11DF91F639FB00DE11DF91FBD0144
:10263000CF0111240895A1E21A2EAA1BBB1BFD0194
:102640000DC0AA1FBB1FEE1FFF1FA217B307E40791
:10265000F50720F0A21BB30BE40BF50B661F771FE9
:10266000881F991F1A9469F76095709580959095C9
:102670009B01AC01BD01CF010895EE0FFF1F059036
:0A268000F491E02D0994F894FFCFC7
:10268A004572726F723A205472616E736D6974206A
:10269A00427566666572204572726F720045727283
:1026AA006F723A205265636569766572205048599F
:1026BA0020686561646572204572726F72004572A6
:1026CA00726F723A205265636569766572204F7639
:1026DA00657272756E00507265616D626C65206418
:1026EA006574656374696F6E2074696D656F75745E
:1026FA00004555493A20002E000A00446576696370
:10270A00653A2000205665722E200044657669637A
:10271A00652073686F727420616464726573733ABA
:10272A0020006E616E00696E66006F7666002E008C
:10273A0001000000003C0CE10CD20B030CE30B2C53
:02274A000C0081
:00000001FF
