:100000000C9403010C9430010C9430010C943001D9
:100010000C9430010C9430010C9430010C9430019C
:100020000C9430010C9430010C9430010C9430018C
:100030000C9430010C9430010C9430010C9430017C
:100040000C9430010C9430010C9430010C9430016C
:100050000C9430010C9430010C9430010C94CB12B0
:100060000C9430010C94E60A0C94320C0C94300180
:100070000C9430010C9430010C9430010C9430013C
:100080000C9430010C9430010C9430010C9430012C
:100090000C94260B0C94710C0C9430010C943001D0
:1000A0000C9430010C9430010C9430010C9430010C
:1000B0000C9430010C9430010C9430010C943001FC
:1000C0000C9430010C9430010C9430010C94660BAC
:1000D0000C94B00C0C9430010C94A60B0C94EF0C07
:1000E0000C94300100002100240027002A002D007C
:1000F0003000330001010000040107010A01000083
:100100002200250028002B002E00310034000201BF
:100110000000050108010B0100002000230026005B
:1001200029002C002F00320000010000030106010D
:10013000090105050505070508080808020202026D
:100140000A0A080804040404010101010101010173
:100150000303030303030303040707070C0C0C0C3E
:100160000C0C0C0C02020202060606060606060627
:100170000B0B0B0B0B0B0B0B0102102020080810B4
:100180002040102040800201020108040201010207
:1001900004081020408080402010080402018004E0
:1001A000020180402010080402010804020101023B
:1001B0000408102040800102040810204080000044
:1001C000090A02080B0C0D070603040100000000D9
:1001D000000000000000000000000000000000001F
:1001E0000000000000000000000011100F000000DF
:1001F00000000000000000000000000000000000FF
:1002000000000000620E11241FBECFEFD1E2DEBF5E
:10021000CDBF00E00CBF12E0A0E0B2E0E2E6FEE2FB
:1002200000E00BBF02C007900D92A23BB107D9F7C7
:100230001BBE15E0A2EBB2E001C01D92A23EB107C9
:10024000E1F712E0C6E0D2E004C02297FE010E946E
:100250002B17C430D107C9F70E94980F0C942F17A1
:100260000C940000EF92FF920F93DF93CF93CDB7E2
:10027000DEB760970FB6F894DEBF0FBECDBFA82FD4
:10028000002309F461C07E010894E11CF11C88E0A0
:10029000F70111928A95E9F729833A834B835C83AE
:1002A0006D837E83AF83988780E2801BE82FFF27D2
:1002B000E7FDF0954D815E816F817885181684F099
:1002C0001D861E861F86188A882799278E1B9F0BDE
:1002D00004C076956795579547958A95D2F728C0BB
:1002E000202F332727FD3095DB01CA01022E04C0E1
:1002F000B695A795979587950A94D2F78D879E878F
:10030000AF87B88B04C0440F551F661F771FEA954F
:10031000D2F789819A81AB81BC8104C0B695A7953B
:10032000979587952A95D2F7482B592B6A2B7B2BCB
:1003300049875A876B877C8729853A854B855C85F9
:100340006D857E85AF8598898A2F60960FB6F89463
:10035000DEBF0FBECDBFCF91DF910F91FF90EF9029
:100360000895EF92FF920F93DF93CF93CDB7DEB74F
:1003700060970FB6F894DEBF0FBECDBFA82F002345
:1003800009F461C07E010894E11CF11C88E0F701CA
:1003900011928A95E9F729833A834B835C836D83B5
:1003A0007E83AF83988780E2801BE82FFF27E7FDDD
:1003B000F09549815A816B817C81181684F01986E9
:1003C0001A861B861C86882799278E1B9F0B04C0C4
:1003D000440F551F661F771F8A95D2F728C0202F1C
:1003E000332727FD3095DB01CA01022E04C0880F98
:1003F000991FAA1FBB1F0A94D2F789879A87AB87D8
:10040000BC8704C07695679557954795EA95D2F7CE
:100410008D819E81AF81B88504C0880F991FAA1F66
:10042000BB1F2A95D2F7482B592B6A2B7B2B4D8764
:100430005E876F87788B29853A854B855C856D85CE
:100440007E85AF8598898A2F60960FB6F894DEBFB7
:100450000FBECDBFCF91DF910F91FF90EF90089528
:100460001F93CF93DF93182FEB0160387105C8F409
:100470008AE060E00E949314812F90E0805C9F4F9F
:100480008EBD0DB407FEFDCF8EB5CF77D070CEBD3B
:100490000DB407FEFDCF8EB51EBC0DB407FEFDCF1B
:1004A0002FC0CB018058904080589F4710F010E03B
:1004B0002CC08AE060E00E949314812F90E0805C61
:1004C0009F4F8EBD0DB407FEFDCF8EB5CE018F7749
:1004D000907080589F4F8EBD0DB407FEFDCF8EB536
:1004E000C078DF77CC0FCD2FCC1FDD0BD195CEBDE3
:1004F0000DB407FEFDCF8EB51EBC0DB407FEFDCFBB
:100500001EB58AE061E00E949314812FDF91CF91A4
:100510001F910895AF92BF92CF92DF92EF92FF9218
:100520000F931F93CF93DF93EE24FF2410E0B0E0EE
:10053000A0E0F0E0E0E0DD24C4E0D0E09701412F4E
:100540005B2F6A2F7F2F8E2F9D2D08E00E94B10117
:10055000122F032FF42EE52ED62EC72EB82EA92E3D
:1005600086E0BE010E943002212F280F31E02117C2
:1005700008F030E0300F41E0301708F040E04F0D58
:1005800051E04F1508F050E05E0D61E05E1508F097
:1005900060E06D0D71E06D1508F070E07C0D81E09C
:1005A0007C1508F080E08B0D91E08B1508F090E051
:1005B000092F0A0D7901142FB52FA62FF72FE82F39
:1005C000D02E21979FEFCF3FD90709F0B7CF902FBB
:1005D000DF91CF911F910F91FF90EF90DF90CF901F
:1005E000BF90AF900895EF92FF920F931F93082F43
:1005F00083E0602F70E00E943002E82EFF2410E0BC
:100600000F5F1F4F83E0B8010E943002382F20E0B7
:100610002E0D3F1DC9011F910F91FF90EF9008957E
:100620000F931F93CF93DF93182FEB01042F6038A4
:100630007105C8F48AE060E00E949314812F90E075
:1006400080549F4F8EBD0DB407FEFDCF8EB5CF7782
:10065000D070CEBD0DB407FEFDCF8EB50EBD0DB46E
:1006600007FEFDCF2DC0CB018058904080589F479A
:1006700060F58AE060E00E949314812F90E080543E
:100680009F4F8EBD0DB407FEFDCF8EB5CE018F7787
:10069000907080589F4F8EBD0DB407FEFDCF8EB574
:1006A000C078DF77CC0FCD2FCC1FDD0BD195CEBD21
:1006B0000DB407FEFDCF8EB50EBD0DB407FEFDCF08
:1006C0008EB58AE061E00E949314DF91CF911F9173
:1006D0000F9108954F925F926F927F928F929F92A7
:1006E000AF92BF92CF92DF92EF92FF920F931F9340
:1006F000DF93CF93CDB7DEB7CF57D0400FB6F89486
:10070000DEBF0FBECDBF5C01D62EC72E942E81E07A
:10071000898388E88A831B829AEC9C838EED8D8383
:100720002E831F83988789870A871B878BE0980E03
:1007300000E010E07E010894E11CF11CF701E00FDD
:10074000F11F89E0B80140810E9410030F5F1F4F25
:100750000A30110599F78D2D9C2D9C0169010BE044
:1007600010E0E92CFF24EAE0F0E0EE0EFF1E09C0E5
:1007700089E0B801F60141916F010E9410030F5FFB
:100780001F4FE016F106A4F7F2E09F0E88E060E04C
:1007900070E0492D0E9410038FE060E070E00E943D
:1007A000300287FD0DC08FE063E070E00E943002F0
:1007B00084FFF2CF81E595E060E072E00E946E1167
:1007C0008FE060E070E04EEF0E9410038DE060E08B
:1007D00070E040E40E9410035524662477248824A6
:1007E0009924CC24DD2400E024E0E22EF12C87E1E2
:1007F000B7010E943002182F252D362D472D582D78
:10080000692D7C2D8D2D902F08E00E94B101092FBC
:10081000B22FB10FE1E0B21708F0E0E0AE2FA30F66
:1008200021E0A31708F020E0122F140F21E0141785
:1008300008F020E0422E450E21E0451608F020E0A9
:10084000422F460F21E0461708F020E0322F370FE5
:1008500021E0371708F020E0280F91E0281708F072
:1008600090E0900F5B2E6A2E712E842C942EC32E56
:10087000D22E092F0894E108F1088FEFE8168FEFC8
:10088000F80609F0B4CFF501B183A2831383448243
:100890004583368327839087C501C158DF4F0FB644
:1008A000F894DEBF0FBECDBFCF91DF911F910F91A6
:1008B000FF90EF90DF90CF90BF90AF909F908F9080
:1008C0007F906F905F904F90089586E360E070E0B6
:1008D00041E00E9410038DE267E070E040E80E9472
:1008E000100388EC90E00E94651386E360E070E0FE
:1008F00040E00E94100308953F924F925F926F92E2
:100900007F928F929F92AF92BF92CF92DF92EF929F
:10091000FF920F931F93CF93DF937C016B018DE0C8
:1009200060E070E040E40E9410038DE061E070E060
:1009300041E00E94100315C084FF05C081E595E0E9
:100940006DE172E00BC08FE062E070E00E94300267
:1009500084FF07C081E595E06EE372E00E946E11AE
:1009600007C08FE061E070E00E94300285FFE4CFB5
:100970008DE060E070E040E40E94100380E160E000
:1009800070E00E9430023FE7332E382229F000E069
:1009900010E0C32DD0E015C05524662477248824A8
:1009A000BB24CC24DD2400E0C4E0D0E00EC081E113
:1009B000B8010E943002F601E00FF11F80830F5F43
:1009C0001F4F0C171D079CF3E7CF85E1BE010E9466
:1009D0003002182F252D362D472D582D6B2D7C2DAF
:1009E0008D2D902F08E00E94B101A22EA32FB42FCD
:1009F000052FD62EC72EB82E892E30E040E050E0CD
:100A000060E070E080E090E0A10EF1E0A11608F057
:100A1000F0E0E1E0A31708F0E0E04F2E4A0EF1E02D
:100A20004A1608F0F0E0EF2BF1E0B41708F0F0E020
:100A30009E2E9B0EE1E09B1608F0E0E0FE2BE1E02D
:100A4000051708F0E0E01F2F100FF1E0101708F075
:100A5000F0E0EF2BF1E0D61608F0F0E0BE2FBD0D70
:100A6000E1E0BD1508F0E0E0FE2BE1E0C71608F07C
:100A7000E0E0AF2FAC0DF1E0AC1508F0F0E0EF2BAB
:100A8000F1E0B81608F0F0E04E2F4B0D31E04B15B9
:100A900008F030E08F2F832B880D5A2C642C792C92
:100AA000812EBB2ECA2ED42E082F21979FEFCF3F29
:100AB000D90709F08ACFF701A18242829382148379
:100AC000B583A683478380873082C701DF91CF91AA
:100AD0001F910F91FF90EF90DF90CF90BF90AF905C
:100AE0009F908F907F906F905F904F903F90089570
:100AF000EF92FF920F931F93CF93DF937C018B01B3
:100B00008DE060E070E040E40E941003C0E0D0E0BF
:100B100009C0F701EC0FFD1F89E0BE0140810E9472
:100B200010032196C017D107A4F3402F4E5F88E031
:100B300060E070E00E9410038DE060E070E042E051
:100B40000E9410038FE060E070E00E94300287FD99
:100B500007C08FE063E070E00E94300284FFF2CFB4
:100B60008FE060E070E04EEF0E9410038DE060E0E7
:100B700070E040E40E941003DF91CF911F910F912C
:100B8000FF90EF9008954F925F926F927F928F92B5
:100B90009F92AF92BF92CF92DF92EF92FF920F930C
:100BA0001F93DF93CF93CDB7DEB7CF57D0400FB6AB
:100BB000F894DEBF0FBECDBF7C0181E0898388E859
:100BC0008A831B829AEC9C838EED8D832E831F83F8
:100BD000988789870A871B87442371F0DB01FE0110
:100BE0003C96642F70E0655F7F4FAE014F5F5F4FB3
:100BF0009A01260F371F07C0CE0101966BE070E007
:100C000006C08D918193E217F307D9F7CA010E94BC
:100C1000780555246624772488249924AA24BB24A3
:100C200000E044E0C42ED12C87E1B6010E943002DE
:100C3000182F252D362D472D582D692D7A2D8B2DCA
:100C4000902F08E00E94B101092FB22FB10FE1E00F
:100C5000B21708F0E0E0AE2FA30F21E0A31708F0D1
:100C600020E0122F140F21E0141708F020E0422E8C
:100C7000450E21E0451608F020E0422F460F21E006
:100C8000461708F020E0322F370F21E0371708F021
:100C900020E0280F91E0281708F090E0900F5B2EDD
:100CA0006A2E712E842C942EA32EB22E092F089416
:100CB000C108D1088FEFC8168FEFD80609F0B4CF5E
:100CC000F701B183A283138344824583368327834C
:100CD0009087C701C158DF4F0FB6F894DEBF0FBE33
:100CE000CDBFCF91DF911F910F91FF90EF90DF90DB
:100CF000CF90BF90AF909F908F907F906F905F90BC
:100D00004F900895EF92FF920F931F93082F7B014E
:100D1000AB01507083E0602F70E00E94100310E080
:100D20000F5F1F4F83E0B8014F2D0E9410031F91EA
:100D30000F91FF90EF9008959F92AF92BF92CF9244
:100D4000DF92EF92FF920F931F93DF93CF93CDB774
:100D5000DEB728970FB6F894DEBF0FBECDBFA22F27
:100D60002983F32F3A83342F4B835C836D837E83F7
:100D70008F839887A32EEF2EFA2E952ED62EB72E80
:100D8000C82E83E26CE070E047E00E94100383E22B
:100D90006DE070E049EA0E94100383E26EE070E0CB
:100DA00042E00E94100383E26FE070E045E20E949F
:100DB00010038EE266E078E147E00E9410038EE2C5
:100DC00067E078E146E10E94100388E26CE070E0A1
:100DD00040EE0E94100388E26DE070E04FE30E9455
:100DE000100388E26EE070E04EE10E94100388E29A
:100DF0006FE070E040E00E9410038AE26BE070E078
:100E000040EC0E9410038BE26BE070E04EEB0E941E
:100E100010034E2D4A0D88E062E070E00E9410033E
:100E200088E061E070E04F2D0E941003FF2029F45C
:100E300084E062E070E044E404C084E062E070E0DA
:100E400044E00E94100381E0E81679F58EE160E04D
:100E500070E048E40E9410038EE161E070E048E237
:100E60000E9410038EE162E070E048E00E941003EF
:100E70008EE163E070E04EE00E94100383E264E0E4
:100E800070E040E70E94100383E265E070E048E80C
:100E90000E94100387E264E070E047E80E941003BC
:100EA00087E265E070E040E01CC000E010E08EE109
:100EB000B80145E80E9410030F5F1F4F0430110571
:100EC000B1F783E264E070E04BE90E94100383E233
:100ED00065E070E048E80E94100387E264E070E09B
:100EE0004DE80E9410039920D1F080E4F81629F40F
:100EF00087E262E070E042E00EC080E2F81629F47A
:100F000087E262E070E046E006C0FF2031F487E24D
:100F100062E070E046E10E94100392E314C080E4B6
:100F2000F81619F080E2F81629F487E262E070E022
:100F300041E006C0FF2031F487E262E070E04AE061
:100F40000E94100390E04D2D4295440F440F407CC9
:100F50008E2D880F880F480F490F8FE162E070E0F7
:100F60000E941003BB0CBB0CBB0C8CE1D822D694A6
:100F7000D694DB0C8FE163E070E04D2D0E941003EE
:100F800080E4A81629F487E266E070E044E606C033
:100F9000A7FE0CC087E266E070E040E20E9410030A
:100FA00087E267E070E040E00E94100388E0C81626
:100FB000B9F487E26BE070E041E30E94100381E046
:100FC000E81629F487E268E070E04DE239C082E07B
:100FD000E81609F07CC087E268E070E04BE619C0D3
:100FE00080E1C816E9F487E26BE070E043E30E9419
:100FF000100381E0E81629F487E268E070E042E53A
:101000001FC082E0E81609F062C087E268E070E085
:101010004EEB0E94100387E269E070E040E04FC0B1
:1010200080E2C81611F587E26BE070E045E30E94AC
:10103000100381E0E81659F487E268E070E04AE9BD
:101040000E94100387E269E070E040E024C082E083
:10105000E816E9F587E268E070E04EE50E941003CB
:1010600087E269E070E041E02AC080E4C81679F5C3
:1010700087E26BE070E047E30E94100381E0E8162E
:1010800089F487E268E070E04DE10E94100387E296
:1010900069E070E041E00E94100387E26AE070E0DE
:1010A0004AE113C082E0E81691F487E268E070E05C
:1010B00046E90E94100387E269E070E042E00E9486
:1010C000100387E26AE070E04BE30E94100384E0C3
:1010D000A81659F487E266E270E040E10E9410032E
:1010E00087E267E270E040E00AC088E0A81619F0E5
:1010F00084E1A81631F487E266E270E048E20E94DB
:10110000100387E267E270E040E00E941003289637
:101110000FB6F894DEBF0FBECDBFCF91DF911F9108
:101120000F91FF90EF90DF90CF90BF90AF909F9086
:101130000895CF92DF92EF92FF920F931F9380E07A
:1011400063E070E00E943002E82E80E062E070E030
:101150000E943002F82E80E061E070E00E943002D0
:10116000D82E80E060E070E00E943002C82E01E5D9
:1011700015E0C80160E672E00E944F117E2D60E02C
:101180006F0D711DC80140E150E00E94AC10C80114
:1011900069E672E00E944F11C8016D2D40E150E0F8
:1011A0000E94DA10C8016CE572E00E944F11C8017C
:1011B0006C2D40E150E00E94EC101F910F91FF90C8
:1011C000EF90DF90CF9008952F923F924F925F92D1
:1011D0006F927F928F929F92AF92BF92CF92DF9247
:1011E000EF92FF920F931F93DF93CF93CDB7DEB7AC
:1011F000A4970FB6F894DEBF0FBECDBF8091A102B9
:10120000882309F027C1CE01019662EB72E040E02D
:101210002AE030E00BE010E00E94C305CE010A9600
:1012200062EB72E00E947C040E948A02A92F922F36
:1012300094599CA3F1E0921708F0F0E0232F285076
:10124000E1E0231708F0E0E0F20FFB8B31E0F2174A
:1012500008F030E0E32B242F225F31E0241708F060
:1012600030E0E20FEC8B41E0E21708F040E0342B75
:10127000252F245F41E0251708F040E0320F3D8B19
:1012800031E0ED89E21708F030E0432BF42FF60F40
:10129000FE8B21E0F61708F020E0270F2F8B21E0CE
:1012A0009F89971708F020E0280F288F91E02817D2
:1012B00008F090E09A0F998FEA81EC8FFB81FD8F07
:1012C0002C812E8F8D818F8F9E8198A3EF81E9A332
:1012D000F885FAA329852BA36B847C848D849E8456
:1012E000AF84B888C988DA881CA18B898A8F9C89C9
:1012F0009B8F2D883E884F88588C098DEE24FF24C3
:101300008AE0B701412F0E941003212F3A8D4B8DA7
:10131000522D632D742D852D902F08E00E943201EF
:10132000122F3A8F4B8F252E362E472E582E092FEF
:101330000894E11CF11CE5E0EE16F10409F782EBDC
:10134000E82E82E0F82E2C8D3D8D4E8D5F8D68A1AC
:1013500079A18AA19BA1F70121937F0108E00E9456
:101360003201FAEBEF16F2E0FF06A9F79301A401B0
:10137000B501C601F70121937F0108E00E94320107
:10138000F2ECEF16F2E0FF06A9F72CA13B894C899D
:101390005D896E897F89888D998DF70121937F0101
:1013A00008E00E943201FAECEF16F2E0FF06A9F71E
:1013B0008DE060E070E046E00E941003CE010196EF
:1013C000B7016851704048E12AE030E00BE010E0DE
:1013D000EE240E946A03EA80FB800C811D81E618DE
:1013E000F7080809190981E595E060E772E00E94B5
:1013F0004F11C801B7010E94CB1525E338E443E83B
:1014000057E30E948116AB01BC0181E595E022E023
:1014100030E00E94B81264E670E080E090E00E9444
:101420003A13A4960FB6F894DEBF0FBECDBFCF918E
:10143000DF911F910F91FF90EF90DF90CF90BF90C1
:10144000AF909F908F907F906F905F904F903F9064
:101450002F90089568EE73E080E090E00E943A13C8
:101460001092A102D0CE0F931F93DF93CF93CDB7ED
:10147000DEB728970FB6F894DEBF0FBECDBF01E5EB
:1014800015E0C80140E855E260E070E00E942E0DD2
:1014900082E360E00E94D11385E361E00E94D113F2
:1014A00083E361E00E94D11384E361E00E94D113E1
:1014B00085E361E00E94931480E00E94B80A85E011
:1014C0000E94BD0A81E00E94AE0A0E94CE0A0E94DC
:1014D00065040E949908198291E09A8388E08B83C1
:1014E0009C8383E08E838D8380E48F8320E031E0D2
:1014F00048E051E063E073E098850E949C0680E03C
:101500006BE070E00E94820682E06AEC7EED0E9451
:101510008206C8016CE772E00E944F1180E00E94D1
:10152000F302BC01C80140E150E00E94BD108DE013
:1015300060E070E040E40E94100384E060E070E04E
:1015400049E00E94100328960FB6F894DEBF0FBE44
:10155000CDBFCF91DF911F910F910895882321F086
:101560008CB58F7D8CBD08958CB580628CBD08953F
:101570009CB5937F982B9CBD08952CB5382F337064
:101580002C7F322B3CBD2DB590E095958795959598
:10159000879581702E7F822B8DBD089585E361E054
:1015A0000E94931485E361E00E94D1138CB58061A1
:1015B0008CBD8CB580648CBD84E361E00E94D11346
:1015C00083E361E00E94D113089508951F920F9262
:1015D0000FB60F920BB60F9211242F933F934F9398
:1015E0008F939F93EF93FF938091C00082FD2AC059
:1015F0004091C60020917103309172032F5F3F4FDD
:101600002F733070809173039091740328173907FA
:1016100059F0E0917103F0917203EF5CFC4F40834D
:101620003093720320937103FF91EF919F918F91FB
:101630004F913F912F910F900BBE0F900FBE0F90C7
:101640001F9018958091C600EFCF08951F920F92BA
:101650000FB60F920BB60F9211242F933F934F9317
:101660008F939F93EF93FF938091C80082FD2AC0D0
:101670004091CE002091F9033091FA032F5F3F4F44
:101680002F7330708091FB039091FC03281739076A
:1016900059F0E091F903F091FA03E754FC4F4083CD
:1016A0003093FA032093F903FF91EF919F918F916B
:1016B0004F913F912F910F900BBE0F900FBE0F9047
:1016C0001F9018958091CE00EFCF08951F920F9232
:1016D0000FB60F920BB60F9211242F933F934F9397
:1016E0008F939F93EF93FF938091D00082FD2AC048
:1016F0004091D60020918104309182042F5F3F4FAA
:101700002F733070809183049091840428173907D7
:1017100059F0E0918104F0918204EF5BFB4F40832C
:101720003093820420938104FF91EF919F918F91D8
:101730004F913F912F910F900BBE0F900FBE0F90C6
:101740001F9018958091D600EFCF08951F920F92A9
:101750000FB60F920BB60F9211242F933F934F9316
:101760008F939F93EF93FF938091300182FD2AC066
:10177000409136012091090530910A052F5F3F4FB6
:101780002F73307080910B0590910C052817390745
:1017900059F0E0910905F0910A05E753FB4F4083AA
:1017A00030930A0520930905FF91EF919F918F9146
:1017B0004F913F912F910F900BBE0F900FBE0F9046
:1017C0001F90189580913601EFCFE0915D05F09163
:1017D0005E05E05CFF4F8191919120813181821BF8
:1017E000930B8F739070892BD1F5E0917F05F09169
:1017F0008005E05CFF4F8191919120813181821BB6
:10180000930B8F739070892B39F5E091A105F091BE
:10181000A205E05CFF4F8191919120813181821B73
:10182000930B8F739070892BA1F4E091C305F09115
:10183000C405E05CFF4F8191919120813181821B31
:10184000930B8F739070892B09F408950E94A50B58
:1018500008950E94650BE9CF0E94250BD6CF0E9408
:10186000E50AC3CF1F920F920FB60F920BB60F92DD
:1018700011242F933F938F939F93EF93FF93209186
:10188000B5033091B6038091B7039091B803281740
:10189000390709F1E091B703F091B803EB58FC4F19
:1018A00020818091B7039091B80301968F73907057
:1018B0009093B8038093B7032093C600FF91EF91F4
:1018C0009F918F913F912F910F900BBE0F900FBE64
:1018D0000F901F9018958091C1008F7D8093C1005B
:1018E000EDCF1F920F920FB60F920BB60F921124ED
:1018F0002F933F938F939F93EF93FF9320913D04FA
:1019000030913E0480913F0490914004281739079C
:1019100009F1E0913F04F0914004E350FC4F208135
:1019200080913F049091400401968F739070909342
:10193000400480933F042093CE00FF91EF919F914C
:101940008F913F912F910F900BBE0F900FBE0F9074
:101950001F9018958091C9008F7D8093C900EDCFAD
:101960001F920F920FB60F920BB60F9211242F9366
:101970003F938F939F93EF93FF932091C5043091F2
:10198000C6048091C7049091C8042817390709F14B
:10199000E091C704F091C804EB57FB4F2081809180
:1019A000C7049091C80401968F7390709093C804F7
:1019B0008093C7042093D600FF91EF919F918F9160
:1019C0003F912F910F900BBE0F900FBE0F901F9065
:1019D00018958091D1008F7D8093D100EDCF1F921B
:1019E0000F920FB60F920BB60F9211242F933F93C5
:1019F0008F939F93EF93FF9320914D0530914E0568
:101A000080914F05909150052817390709F1E09111
:101A10004F05F0915005E35FFA4F208180914F050B
:101A20009091500501968F7390709093500580931C
:101A30004F0520933601FF91EF919F918F913F9138
:101A40002F910F900BBE0F900FBE0F901F90189507
:101A5000809131018F7D80933101EDCFDF92EF9244
:101A6000FF920F931F93CF93DF93EC017A018B01C9
:101A7000DD24403081EE580780E0680780E0780779
:101A800021F1DD24D394EC89FD8981E090E008A068
:101A900002C0880F991F0A94E2F7808360E079E022
:101AA0008DE390E0A80197010E9407172150304074
:101AB00040405040569547953795279580E1203016
:101AC0003807D0F0DD20C1F0DD24EC89FD891082DB
:101AD00060E874E88EE190E0A80197010E94071782
:101AE00021503040404050405695479537952795B6
:101AF00080E12030380730F7E889F9893083EA89B6
:101B0000FB89208319A2EE89FF89408121E030E022
:101B1000C9010C8C02C0880F991F0A94E2F7482B68
:101B20004083EE89FF894081C9010D8C02C0880F76
:101B3000991F0A94E2F7482B4083EE89FF89408180
:101B4000C9010E8C02C0880F991F0A94E2F7482B36
:101B50004083EE89FF8980810F8C02C0220F331FE2
:101B60000A94E2F7209528232083DF91CF911F91DB
:101B70000F91FF90EF90DF900895DC011C96ED919E
:101B8000FC911D97E05CFF4F219131918081918103
:101B9000281B390B2F733070C9010895DC011C9686
:101BA000ED91FC911D97E05CFF4F20813181E05465
:101BB000F040DF01AE5BBF4F8D919C9111972817CC
:101BC000390749F08D919C91E80FF91F8081282FEA
:101BD00030E0C90108952FEF3FEFC9010895DC01FE
:101BE0001C96ED91FC911D97E05CFF4F20813181A7
:101BF000E054F040DF01AE5BBF4F8D919C91119797
:101C00002817390791F08D919C911197E80FF91FD2
:101C100020818D919C91119701968F7390701196F0
:101C20009C938E9330E0C90108952FEF3FEFC901D7
:101C30000895FC0181A1882311F411A20895A489BB
:101C4000B5898C9186FFFDCF11A20895CF93DF93C4
:101C5000EC01AE85BF85AD01405C5F4FFA0120818C
:101C600031812F5F3F4F2F733070FD01EE5BFF4FCF
:101C70008081918128173907D9F3FA0180819181F8
:101C8000A80FB91F6C93EE85FF85E05CFF4F318391
:101C90002083EE89FF89208181E090E00F8C02C0D3
:101CA000880F991F0A94E2F7282B208381E089A3EB
:101CB000EC89FD8980818064808381E090E0DF9100
:101CC000CF9108951F93109254051092530528EE5A
:101CD00033E040E050E020935505309356054093A3
:101CE00057055093580566EA72E070935205609369
:101CF000510581E393E090935E0580935D0585E750
:101D000093E09093600580935F0585EC90E090935D
:101D100062058093610584EC90E090936405809364
:101D2000630580EC90E0909366058093650581ECF7
:101D300090E0909368058093670582EC90E0909323
:101D40006A058093690586EC90E090936C0580931A
:101D50006B0514E010936D05B3E0B0936E05A7E03A
:101D6000A0936F05F5E0F0937005E1E0E093710555
:101D700010927605109275052093770530937805BB
:101D80004093790550937A057093740560937305B9
:101D900089EB93E09093800580937F058DEF93E02E
:101DA00090938205809381058DEC90E0909384055B
:101DB000809383058CEC90E0909386058093850555
:101DC00088EC90E0909388058093870589EC90E0FB
:101DD00090938A05809389058AEC90E090938C0516
:101DE00080938B058EEC90E090938E0580938D050B
:101DF00010938F05B0939005A0939105F0939205F1
:101E0000E0939305109298051092970520939905F9
:101E100030939A0540939B0550939C0570939605CB
:101E20006093950581E494E09093A2058093A105C9
:101E300085E894E09093A4058093A30585ED90E058
:101E40009093A6058093A50584ED90E09093A80556
:101E50008093A70580ED90E09093AA058093A90553
:101E600081ED90E09093AC058093AB0582ED90E01E
:101E70009093AE058093AD0586ED90E09093B0050C
:101E80008093AF051093B105B093B205A093B3054D
:101E9000F093B405E093B5051092BA051092B90518
:101EA0002093BB053093BC054093BD055093BE0500
:101EB0007093B8056093B70589EC94E09093C405DE
:101EC0008093C3058DE095E09093C6058093C5058A
:101ED00085E391E09093C8058093C70584E391E082
:101EE0009093CA058093C90580E391E09093CC0557
:101EF0008093CB0581E391E09093CE058093CD054F
:101F000082E391E09093D0058093CF0586E391E042
:101F10009093D2058093D1051093D305B093D40547
:101F2000A093D505F093D605E093D7051F910895AA
:101F30000E946F130E94330A0E94E40885EE9BE022
:101F4000892B29F00E94E50B0E94E408FBCF0E9438
:101F5000E4080E94E408FBCFCF92DF92EF92FF9259
:101F60000F931F93CF93DF937C016B01EA0141151F
:101F70005105D9F000E010E0D6016D916D01D70157
:101F8000ED91FC910190F081E02DC7011995080FAA
:101F9000191F219789F7C801DF91CF911F910F91E8
:101FA000FF90EF90DF90CF90089500E010E0F3CF26
:101FB000EF92FF920F931F938C01DC01ED91FC9146
:101FC0000190F081E02D6DE019957C01D801ED9133
:101FD000FC910190F081E02DC8016AE019959C0107
:101FE0002E0D3F1DC9011F910F91FF90EF90089595
:101FF000CF93DF93EC016115710599F0DB010D9032
:102000000020E9F71197A61BB70BE881F981028040
:10201000F381E02DAD0119959C01C901DF91CF91AC
:10202000089520E030E0C901DF91CF9108954F92EB
:102030005F927F928F929F92AF92BF92CF92DF92E8
:10204000EF92FF920F931F93DF93CF93CDB7DEB73D
:10205000A1970FB6F894DEBF0FBECDBF2C01742E32
:10206000CB01223008F460C0822E9924AA24BB241C
:1020700019A221E2C22ED12CCC0EDD1E0BC0405D78
:10208000F6014083E114F1040105110501F17E2CF4
:102090005F2DC801672D752FA50194010E940717B8
:1020A00079018A01C801B701A50194010E94E816CF
:1020B000472D461B0894C108D1084A3004F3495CF7
:1020C000F6014083E114F1040105110501F7C11483
:1020D000D10481F1D6010D900020E9F71197AC19D8
:1020E000BD09F20180819181FC0122813381C2010D
:1020F000B601AD01F90119959C01C901A1960FB670
:10210000F894DEBF0FBECDBFCF91DF911F910F912D
:10211000FF90EF90DF90CF90BF90AF909F908F9007
:102120007F905F904F9008953AE0832E912CA12CE0
:10213000B12C9ECF20E030E0E0CFDC01211531054D
:1021400019F00E9417100895ED91FC910190F08113
:10215000E02D642F19950895EF92FF920F931F932E
:102160009A017B0100E010E0B801A7010E949D10D8
:102170001F910F91FF90EF900895CF92DF92EF9211
:10218000FF920F931F936C017B019A0100E010E016
:10219000B801A7010E949D108C01C6010E94D80FB2
:1021A000080F191FC8011F910F91FF90EF90DF904A
:1021B000CF900895EF92FF920F931F939A01E62E0E
:1021C000FF2400E010E0B801A7010E949D101F91BC
:1021D0000F91FF90EF900895CF92DF92EF92FF92D0
:1021E0000F931F936C01E62E9A01FF2400E010E08C
:1021F000B801A7010E949D108C01C6010E94D80F52
:10220000080F191FC8011F910F91FF90EF90DF90E9
:10221000CF900895CF92DF92EF92FF920F931F938A
:10222000CF93DF93EC016A017B0121153105B9F0F1
:102230002A30310539F477FD1BC02AE00E941710BF
:102240009C0103C00E9417109C01C901DF91CF912E
:102250001F910F91FF90EF90DF90CF900895E8814C
:10226000F9810190F081E02D642F19959C01EDCF4B
:10227000E881F9810190F081E02D6DE219958C01E2
:1022800044275527BA014C195D096E097F09CE0113
:102290002AE00E9417109801280F391FD6CFCF933C
:1022A000DF93EC016115710599F0DB010D900020C1
:1022B000E9F71197A61BB70BE881F9810280F3813A
:1022C000E02DAD0119959C01C901DF91CF910895D1
:1022D00020E030E0C901DF91CF9108950F931F9363
:1022E000CF93DF93EC0161157105D9F0DB010D90FF
:1022F0000020E9F71197A61BB70BE881F98102804E
:10230000F381E02DAD0119958C01CE010E94D80F0B
:102310009801280F391FC901DF91CF911F910F91AB
:10232000089500E010E0F1CF4F925F927F928F927C
:102330009F92AF92BF92CF92DF92EF92FF920F9354
:102340001F93CF93DF934C015A016B01722ECB0187
:10235000BA01A60195010E94E416882309F0DDC0A8
:10236000C0E0D0E086017501E89417F9C801B70113
:102370002FEF3FEF4FE75FE70E94E416882309F451
:10238000A2C0C1E0D0E0219709F0ABC0C601B50101
:102390002FEF3FEF4FE75FE40E947D1618160CF415
:1023A000AEC0C601B5012FEF3FEF4FE75FEC0E94D3
:1023B0002E1588230CF4A3C0C601B50120E030E03F
:1023C00040E050E00E942E1587FDAEC04424552405
:1023D000772009F4B8C020E030E040E05FE310E08F
:1023E000CA01B90120E030E040E251E40E94321518
:1023F0009B01AC011F5F171598F3C601B5010E9440
:10240000CA147B018C010E949F155B016C010E9424
:10241000CB159B01AC01C801B7010E94C9147B0117
:102420008C01C401B601A5012AE030E00E949D1094
:10243000EC01D401ED91FC910280F381E02DC40107
:102440006FE972E041E050E01995C80FD91FC40D43
:10245000D51DC801B70120E030E040E251E40E9400
:1024600081167B018C010E949A155B016C01CC24C2
:10247000B7FCC094DC2CC401B601A5012AE030E011
:102480000E940A11C80FD91FC601B5010E94CD15BF
:102490009B01AC01C801B7010E94C9147B018C01EA
:1024A0007A94B9F6CE01DF91CF911F910F91FF90F1
:1024B000EF90DF90CF90BF90AF909F908F907F90E4
:1024C0005F904F900895C801B7012FEF3FEF4FE79E
:1024D0005FE70E942E1518160CF053CF219709F4D0
:1024E00055CFD401ED91FC910280F381E02DC40120
:1024F00067E972E043E050E01995EC01D3CFD401D5
:10250000ED91FC910280F381E02DC4016BE972E052
:1025100043E050E01995EC01C5CFC40163E972E0D6
:102520000E94F80FEC01BECFD401ED91FC91019017
:10253000F081E02DC4016DE219952C01D7FAD094F9
:10254000D7F8D09445CFC601B50120E030E040E097
:102550005FE30E94CA140E949F15AB01BC01C40135
:102560002AE030E00E949D10EC01C40DD51D9ACFE9
:10257000EF92FF920F931F937C010E9494118C01A4
:10258000C7010E94D80F080F191FC8011F910F9192
:10259000FF90EF9008951F920F920FB60F921124A3
:1025A0002F933F938F939F93AF93BF938091DD05BC
:1025B0009091DE05A091DF05B091E0053091E10535
:1025C0000196A11DB11D232F2D5F2D3720F02D5712
:1025D0000196A11DB11D2093E1058093DD05909327
:1025E000DE05A093DF05B093E0058091D9059091B9
:1025F000DA05A091DB05B091DC050196A11DB11DA6
:102600008093D9059093DA05A093DB05B093DC05A0
:10261000BF91AF919F918F913F912F910F900FBEDE
:102620000F901F9018959FB7F8942091D90530917D
:10263000DA054091DB055091DC0586B5A89B06C004
:102640008F3F21F02F5F3F4F4F4F5F4F9FBF542F62
:10265000432F322F2227280F311D411D511D220FDC
:10266000331F441F551F220F331F441F551FB9012D
:10267000CA010895EF92FF920F931F93CF93DF93B8
:102680007B018C010E941313E114F1040105110573
:10269000A9F0EB010E9413136C1B7D0B685E734065
:1026A000C8F30894E108F10801091109E114F104E3
:1026B0000105110519F0C851DC4FECCFDF91CF9126
:1026C0001F910F91FF90EF900895019739F0880FB7
:1026D000991F880F991F02970197F1F70895789431
:1026E00084B5826084BD84B5816084BD85B5826017
:1026F00085BD85B5816085BDEEE6F0E080818160B5
:102700008083E1E8F0E010828081826080838081B4
:1027100081608083E0E8F0E0808181608083E1EB8C
:10272000F0E0808184608083E0EBF0E08081816074
:102730008083E1E9F0E08081826080838081816034
:102740008083E0E9F0E0808181608083E1EAF0E06D
:10275000808182608083808181608083E0EAF0E014
:10276000808181608083E1E2F1E08081826080830A
:10277000808181608083E0E2F1E0808181608083FC
:10278000EAE7F0E0808184608083808182608083DA
:102790008081816080838081806880831092C10005
:1027A0000895CF93DF93482F50E0CA0188589E4F79
:1027B000FC0134914E5C5E4FFA0184918823B9F09C
:1027C00090E0880F991FFC01EC51FF4FA591B49147
:1027D000FC01E250FF4FC591D491662359F062305D
:1027E000B9F09FB7F8948C91832B8C939FBFDF91A6
:1027F000CF9108952FB7F8948C91932F90958923BA
:102800008C938881892388832FBFDF91CF9108958E
:102810002FB7F8948C91932F909589238C9388816E
:10282000832B88832FBFE3CF893009F45EC08A30C1
:1028300070F08D3009F45FC08E30D0F0803109F433
:102840006CC0813109F463C08F30C9F108958430C0
:1028500009F445C08530B8F08730B9F1883048F5C3
:102860008630A1F78091B0008F778093B0000895F3
:102870008B3009F446C08C30B0F08091A0008F7D81
:102880008093A0000895823031F1833030F481309C
:10289000E9F684B58F7784BD0895809180008F77A5
:1028A00080938000089580919000877F80939000AE
:1028B0000895809190008F77809390000895809183
:1028C00020018F778093200108958091B0008F7D43
:1028D0008093B000089584B58F7D84BD0895809164
:1028E00080008F7D809380000895809190008F7D7F
:1028F0008093900008958091A000877F8093A0002E
:1029000008958091A0008F778093A0000895809112
:102910002001877F809320010895809120018F7D81
:10292000809320010895FF920F931F93F62E482F56
:1029300050E0CA0182549E4FFC012491CA0188587C
:102940009E4FFC0104914E5C5E4FFA0114911123DD
:1029500099F02223D1F4E12FF0E0EE0FFF1FE250B7
:10296000FF4FA591B4919FB7F894FF2049F48C9143
:10297000009580238C939FBF1F910F91FF90089526
:102980008C91802B8C939FBFF7CF822F0E941414C1
:10299000E2CF5058BB27AA270ED075C166D130F0C0
:1029A0006BD120F031F49F3F11F41EF45BC10EF4A3
:1029B000E095E7FB51C1E92F77D180F3BA176207A1
:1029C00073078407950718F071F49EF58FC10EF414
:1029D000E0950B2EBA2FA02D0B01B90190010C012F
:1029E000CA01A0011124FF27591B99F0593F50F447
:1029F000503E68F11A16F040A22F232F342F44279F
:102A0000585FF3CF469537952795A795F040539596
:102A1000C9F77EF41F16BA0B620B730B840BBAF066
:102A20009150A1F0FF0FBB1F661F771F881FC2F7D1
:102A30000EC0BA0F621F731F841F48F487957795E5
:102A40006795B795F7959E3F08F0B3CF9395880F9C
:102A500008F09927EE0F979587950895D9D008F437
:102A600081E008950CD00FC107D140F0FED030F0C6
:102A700021F45F3F19F0F0C0511139C1F3C014D1F6
:102A800098F39923C9F35523B1F3951B550BBB2735
:102A9000AA2762177307840738F09F5F5F4F220FE2
:102AA000331F441FAA1FA9F333D00E2E3AF0E0E8DB
:102AB00030D091505040E695001CCAF729D0FE2F27
:102AC00027D0660F771F881FBB1F261737074807B9
:102AD000AB07B0E809F0BB0B802DBF01FF2793586F
:102AE0005F4F2AF09E3F510568F0B6C000C15F3FBE
:102AF000ECF3983EDCF3869577956795B795F79557
:102B00009F5FC9F7880F911D9695879597F908954E
:102B1000E1E0660F771F881FBB1F621773078407EA
:102B2000BA0720F0621B730B840BBA0BEE1F88F7F9
:102B3000E095089504D06894B111D9C00895BCD02F
:102B400088F09F5790F0B92F9927B751A0F0D1F096
:102B5000660F771F881F991F1AF0BA95C9F712C020
:102B6000B13081F0C3D0B1E00895C0C0672F782F95
:102B70008827B85F39F0B93FCCF38695779567958C
:102B8000B395D9F73EF490958095709561957F4FF8
:102B90008F4F9F4F0895E89409C097FB3EF490959E
:102BA0008095709561957F4F8F4F9F4F9923A9F026
:102BB000F92F96E9BB279395F695879577956795B5
:102BC000B795F111F8CFFAF4BB0F11F460FF1BC0F9
:102BD0006F5F7F4F8F4F9F4F16C0882311F096E98C
:102BE00011C0772321F09EE8872F762F05C066233A
:102BF00071F096E8862F70E060E02AF09A95660FF3
:102C0000771F881FDAF7880F9695879597F90895AB
:102C1000990F0008550FAA0BE0E8FEEF16161706ED
:102C2000E807F907C0F012161306E407F50798F055
:102C3000621B730B840B950B39F40A2661F0232B6E
:102C4000242B252B21F408950A2609F4A140A695EA
:102C50008FEF811D811D089597F99F6780E870E0CF
:102C600060E008959FEF80EC089500240A94161602
:102C7000170618060906089500240A94121613066A
:102C8000140605060895092E0394000C11F48823F8
:102C900052F0BB0F40F4BF2B11F460FF04C06F5F14
:102CA0007F4F8F4F9F4F089557FD9058440F551FEA
:102CB00059F05F3F71F04795880F97FB991F61F0BE
:102CC0009F3F79F087950895121613061406551F35
:102CD000F2CF4695F1DF08C0161617061806991FA1
:102CE000F1CF86957105610508940895E894BB2796
:102CF00066277727CB0197F908958ADF08F48FEFCD
:102D000008950BD0C0CFB1DF28F0B6DF18F09523BF
:102D100009F0A2CFA7CF1124EACFC6DFA0F3959F79
:102D2000D1F3950F50E0551F629FF001729FBB27B2
:102D3000F00DB11D639FAA27F00DB11DAA1F649F5E
:102D40006627B00DA11D661F829F2227B00DA11D11
:102D5000621F739FB00DA11D621F839FA00D611D97
:102D6000221F749F3327A00D611D231F849F600DB8
:102D7000211D822F762F6A2F11249F5750408AF0F1
:102D8000E1F088234AF0EE0FFF1FBB1F661F771F7D
:102D9000881F91505040A9F79E3F510570F05CCFBD
:102DA000A6CF5F3FECF3983EDCF386957795679569
:102DB000B795F795E7959F5FC1F7FE2B880F911D9B
:102DC0009695879597F9089523DF880B990B0895B9
:102DD000629FD001739FF001829FE00DF11D649FFF
:102DE000E00DF11D929FF00D839FF00D749FF00D8B
:102DF000659FF00D9927729FB00DE11DF91F639F2C
:102E0000B00DE11DF91FBD01CF0111240895A1E20C
:102E10001A2EAA1BBB1BFD010DC0AA1FBB1FEE1F54
:102E2000FF1FA217B307E407F50720F0A21BB30B9F
:102E3000E40BF50B661F771F881F991F1A9469F71B
:102E400060957095809590959B01AC01BD01CF0177
:102E50000895EE0FFF1F0590F491E02D1994F8945A
:022E6000FFCFA2
:102E62004572726F723A205472616E736D6974208A
:102E7200427566666572204572726F7200457272A3
:102E82006F723A20526563656976657220504859BF
:102E920020686561646572204572726F72004572C6
:102EA200726F723A205265636569766572204F7659
:102EB200657272756E004555493A20002E000A006F
:102EC2004465766963653A2000205665722E2000BB
:102ED2006469666572656E6369613D004465766921
:102EE20063652073686F72742061646472657373C2
:102EF2003A20006E616E00696E66006F7666002E83
:102F0200000100000000260EAC0FBD0DEF0DCE0D2E
:022F1200190E96
:00000001FF
